:020000040800F2
:10000000302B00203D8A0008398800083B88000812
:100010003D8800083F880008418800080000000073
:10002000000000000000000000000000558A0008E9
:100030004388000800000000458800084788000841
:10004000598A00085D8A0008618A0008658A0008EC
:10005000698A00086D8A0008718A0008758A00089C
:10006000798A00087D8A0008818A0008858A00084C
:10007000898A00088D8A0008918A0008958A0008FC
:1000800001810008998A00089D8A0008A18A000859
:10009000A58A0008A98A0008AD8A0008B18A00086C
:1000A000B58A0008B98A0008BD8A0008C18A00081C
:1000B000C58A0008C98A0008CD8A0008D18A0008CC
:1000C000D58A0008D98A0008DD8A0008158A000848
:1000D000E18A0008E58A000849800008E98A0008EA
:1000E000ED8A0008F18A0008F58A0008F98A0008FC
:1000F000FD8A0008018B0008058B0008098B0008A9
:100100000D8B0008118B0008158B0008198B000857
:100110001D8B0008218B0008258B0008298B000807
:100120002D8B0008ED800008318B0008358B00080E
:10013000398B00083D8B0008418B0008658600085C
:100140006F860008458B0008498B000805120008DF
:100150004D8B0008518B0008558B0008518000081A
:10016000598B00085D8B0008618B0008658B0008C7
:10017000698B00086D8B0008718B0008758B000877
:10018000798B00087D8B0008818B0008858B000827
:10019000898B00088D8B0008918B0008958B0008D7
:1001A0004F8800085988000863880008998B000868
:1001B0009D8B0008A18B0008A58B0008A98B000867
:1001C000AD8B0008B18B00082DE9F04106003768BF
:1001D000B846306800F077FE012840F0948030681F
:1001E00000F06CFE002800F08E80306800F066FEA3
:1001F000800203D55FF4001031684861306800F078
:100200005DFEC00203D55FF480103168486130683C
:1002100000F054FE400103D55FF080603168486112
:10022000306800F04BFE800702D50220316848613B
:10023000306800F043FE800012D518F58860006831
:1002400030F02E0018F588610860300000F0B4FF2F
:100250000121306800F03EFE5FF0005031684861D7
:10026000306800F02BFEC00102D5300000F076FDB2
:10027000306800F023FE000705D5300000F08EFF47
:10028000082031684861306800F018FE800126D5EA
:10029000306800F075FE050000200400B06884425C
:1002A00019D214F00F002900C140C80711D518EB6E
:1002B000441010F5A0600068000405D52100C9B203
:1002C000300000F04CF804E02100C9B2300000F02A
:1002D0009BFA641CE2E75FF00070316848613068A7
:1002E00000F0ECFDC0060ED53068806930F01000DB
:1002F00031688861300000F0CBFC3068806950F0D4
:10030000100031688861BDE8F08110B5040094F8F0
:10031000B802012801D102200DE0012084F8B802C2
:10032000206800F087FD0121206800F0FFFD00201B
:1003300084F8B802002010BD10B5040094F8B8028B
:10034000012801D1022009E0012084F8B8022068C8
:1003500000F0CEFE002084F8B802002010BD2DE988
:10036000F04705000E002F68B846B1465FFA89F9DC
:1003700018EB491010F5A0608068400712D518EB03
:10038000491010F5A0600421816018EB491010F5A8
:10039000A06018EB491111F5A061C96851F0020184
:1003A000C16065E018EB491010F5A0608068800618
:1003B00006D518EB491010F5A0602021816057E0A8
:1003C00018EB491010F5A0608068000724D518EBE1
:1003D000491010F5A06018EB491111F5A061C9682A
:1003E00051F00201C1600520282101FB09F12944D7
:1003F00081F85D0018EB491010F5A06010218160B4
:1004000018EB491010F5A060082181604946C9B277
:10041000286800F0BCFD2BE018EB491010F5A06037
:100420008068400524D518EB491010F5A06018EB42
:10043000491111F5A061C96851F00201C160494636
:10044000C9B2286800F0A3FD18EB491010F5A060B0
:10045000102181600820282101FB09F1294481F83D
:100460005D0018EB491010F5A0604FF480618160C9
:1004700018EB491010F5A0608068800518D518EBBE
:10048000491010F5A06018EB491111F5A061C96879
:1004900051F00201C1604946C9B2286800F077FDF9
:1004A00018EB491010F5A0604FF400718160A9E1CC
:1004B00018EB491010F5A0608068C0077DD5286949
:1004C000002810D0282000FB09F12944896C18EB82
:1004D000491212F5A06212695203520B891A00FBED
:1004E00009F02844C1645FF0280A01200AFB09F1E1
:1004F000294481F85D0000200AFB09F12944886540
:1005000018EB491010F5A060012181600AFB09F089
:10051000284490F83F00002806D00AFB09F0284440
:1005200090F83F00022817D118EB491010F5A06091
:1005300018EB491111F5A061C96851F00201C160C1
:100540004946C9B2286800F022FD18EB491010F5A1
:10055000A0601021816022E00AFB09F0284490F895
:100560003F0003281BD118EB491010F5A06000686C
:1005700050F0005018EB491111F5A06108600120FE
:100580000AFB09F1294481F85C000AFB09F02844C0
:1005900090F85C204946C9B2280000F022FE0AFB10
:1005A00009F0284490F8500090F001000AFB09FA85
:1005B00005EB0A0181F8500024E118EB491010F511
:1005C000A0608068800740F1958018EB491010F515
:1005D000A06018EB491111F5A061C96831F0020162
:1005E000C160282000FB09F1294491F85D10012920
:1005F00006D1012100FB09F22A4482F85C1068E070
:1006000000FB09F1294491F85D10052906D1052167
:1006100000FB09F22A4482F85C105AE000FB09F161
:10062000294491F85D10062906D000FB09F1294400
:1006300091F85D10082930D100FB09F12944896D3A
:10064000491C00FB09F22A44916500FB09F1294489
:10065000896D04290BD3002100FB09F22A4491651E
:10066000042100FB09F22A4482F85C1005E0022113
:1006700000FB09F22A4482F85C1018EB491111F5CD
:10068000A061096831F0804151F000410C0018EB85
:10069000491111F5A0610C601BE000FB09F1294430
:1006A00091F85D10032914D1022100FB09F22A44BC
:1006B00082F85C1018EB491111F5A061096831F05E
:1006C000804151F000410C0018EB491111F5A06177
:1006D0000C6018EB491111F5A06102228A6000FB41
:1006E00009F0284490F85C204946C9B2280000F07F
:1006F00078FD87E018EB491010F5A06080680006CF
:1007000027D518EB491010F5A06018EB491111F529
:10071000A061C96851F00201C160282000FB09F105
:100720002944896D491C00FB09F22A449165062180
:1007300000FB09F0284480F85D104946C9B22868DA
:1007400000F025FC18EB491010F5A06080218160B5
:1007500058E018EB491010F5A0608068C00651D52C
:10076000282101FB09F0284490F83F00032816D106
:10077000002001FB09F12944886518EB491010F5A8
:10078000A06018EB491111F5A061C96851F0020190
:10079000C1604946C9B2286800F0F9FB2CE001FBB2
:1007A00009F0284490F83F00002806D001FB09F02A
:1007B000284490F83F0002281ED1002001FB09F2D6
:1007C0002A4490652869002816D1032001FB09F10D
:1007D000294481F85D0018EB491010F5A06018EB72
:1007E000491111F5A061C96851F00201C160494683
:1007F000C9B2286800F0CBFB18EB491010F5A060D7
:1008000010218160BDE8F0872DE9F04705000E005A
:100810002F68B846B1465FFA89F918EB491010F510
:10082000A0608068400712D518EB491010F5A06051
:100830000421816018EB491010F5A06018EB4911F4
:1008400011F5A061C96851F00201C1601EE218EB08
:10085000491010F5A060806880062CD518EB49106F
:1008600010F5A06020218160282000FB09F12944B7
:1008700091F83D10012940F00982002100FB09F2A6
:100880002A4482F83D10022100FB09F0284480F838
:100890005C1018EB491010F5A06018EB491111F528
:1008A000A061C96851F00201C1604946C9B2286817
:1008B00000F06DFBEAE118EB491010F5A0608068CC
:1008C000400629D52820042100FB09F22A4482F899
:1008D0005D10012100FB09F22A4482F83D1000213D
:1008E00000FB09F02844816518EB491010F5A06061
:1008F00018EB491111F5A061C96851F00201C160FE
:100900004946C9B2286800F042FB18EB491010F5BF
:10091000A06040218160B9E118EB491010F5A0609A
:100920008068800518D518EB491010F5A06018EB09
:10093000491111F5A061C96851F00201C160494631
:10094000C9B2286800F023FB18EB491010F5A0602D
:100950004FF40071816099E118EB491010F5A06027
:100960008068C00725D55FF0280A00200AFB09F13E
:100970002944886518EB491010F5A06018EB49115F
:1009800011F5A061C96851F00201C1604946C9B2C0
:10099000286800F0FCFA18EB491010F5A06001215E
:1009A000816001200AFB09FA05EB0A0181F85D006C
:1009B0006CE118EB491010F5A060806800071ED5A7
:1009C00018EB491010F5A0600821816018EB491060
:1009D00010F5A06018EB491111F5A061C96851F03C
:1009E0000201C1604946C9B2286800F0D0FA05206A
:1009F000282101FB09F1294481F85D0046E118EB4B
:100A0000491010F5A0608068C00637D52821002065
:100A100001FB09F22A449065032001FB09F22A44F4
:100A200082F85D0001FB09F0284490F83D000028A1
:100A30000CD101FB09F0284490F83C00002805D1B6
:100A4000012001FB09F1294481F83D0018EB491010
:100A500010F5A06018EB491111F5A061C96851F0BB
:100A60000201C1604946C9B2286800F090FA18EB4B
:100A7000491010F5A0601021816007E118EB4910C2
:100A800010F5A060806800061ED518EB491010F51F
:100A9000A06018EB491111F5A061C96851F002017D
:100AA000C1604946C9B2286800F071FA06202821C1
:100AB00001FB09F1294481F85D0018EB491010F59C
:100AC000A06080218160E1E018EB491010F5A06082
:100AD0008068400525D518EB491010F5A06018EB8B
:100AE000491111F5A061C96851F00201C160494680
:100AF000C9B2286800F04BFA18EB491010F5A06055
:100B00001021816018EB491010F5A0604FF480614E
:100B100081600820282101FB09F1294481F85D004A
:100B2000B4E018EB491010F5A0608068800740F130
:100B3000AD8018EB491010F5A06018EB491111F5C4
:100B4000A061C96831F00201C160282000FB09F1F1
:100B5000294491F85D10012920D1012100FB09F2FF
:100B60002A4482F85C1000FB09F1294491F83F10F7
:100B7000022906D000FB09F1294491F83F1003290E
:100B800074D100FB09F1294491F8511091F0010151
:100B900000FB09F22A4482F8511067E000FB09F1DA
:100BA000294491F85D10032906D1022100FB09F2C6
:100BB0002A4482F85C1059E000FB09F1294491F8BD
:100BC0005D10042906D1022100FB09F22A4482F8B3
:100BD0005C104BE000FB09F1294491F85D100529F8
:100BE00006D1052100FB09F22A4482F85C103DE0A1
:100BF00000FB09F1294491F85D10062906D000FB9D
:100C000009F1294491F85D1008292FD100FB09F161
:100C10002944896D491C00FB09F22A44916500FBB7
:100C200009F12944896D04290BD3002100FB09F245
:100C30002A449165042100FB09F22A4482F85C10E1
:100C400005E0022100FB09F22A4482F85C1018EB4F
:100C5000491111F5A061096831F0804151F000415E
:100C60000C0018EB491111F5A0610C6018EB49114B
:100C700011F5A06102228A6000FB09F0284490F877
:100C80005C204946C9B2280000F0ABFABDE8F08705
:100C90002DE9F84F05002E6837002868D0F820802D
:100CA00018F00F09C8F3434AC8F30A145046022843
:100CB00002D005284BD04BE0002C47D05FF0280B2A
:100CC0000BFB09F02844406C00283FD0220092B270
:100CD0000BFB09F02844416C286800F0DBF80BFBA3
:100CE00009F02844406C20440BFB09F12944486476
:100CF0000BFB09F02844C06C20180BFB09F12944B8
:100D0000C86417EB491010F5A06000691249084249
:100D10001CD017EB491010F5A060006830F080403F
:100D200050F000400090009817EB491111F5A061B8
:100D300008600BFB09F0284490F8500090F0010087
:100D40000BFB09FB05EB0B0181F8500000E0FFE70E
:100D5000BDE8F18F000000000000F81F7CB5040022
:100D600025682E0016F588600068019016F58860E9
:100D700000680090009830F02E00009001988007E5
:100D80000FD50198C00708D52068806930F0005061
:100D900021688861200000F008FA009850F00200F5
:100DA00000900198000739D5009850F00800009095
:100DB0000198400721D5A06902280FD1019810F4AD
:100DC000C020B0F5802F04D10221206800F082F805
:100DD0000CE00121206800F07DF807E0E0680328BE
:100DE00004D14EF6602016F580614860200000F0C6
:100DF000EAF9200000F0D9F910E0200000F0EAF94B
:100E000016F58860006830F02E0016F588610860DD
:100E10002068806950F00050216888610198800640
:100E200003D5009850F020000090009816F58861D6
:100E3000086073BD0100886850F0010088600020E0
:100E400070470100886840084000886000207047B3
:100E500002000023880150F0200010615B1CDFF8C5
:100E60007000834201D3032003E010698006F5D4AB
:100E7000002070470100002210200861521CDFF89A
:100E80005000824201D3032003E00869C006F5D474
:100E900000207047F0B403001C0008001600B6B232
:100EA000F61CB6080025B54206D214F580573F68F7
:100EB0000760001D6D1CF6E7F0BC7047020050692A
:100EC000916908407047406910F0010070470000C8
:100ED000410D030010B40200130013F58060006898
:100EE0008008800013F58064206013F5806000683E
:100EF0000C00E4B214F00304204313F58064206076
:100F00000800C0B2012805D14BF6803013F580648B
:100F1000606008E00800C0B2022804D141F270709D
:100F200013F580646060002010BC704718B40200A4
:100F300013000020009013F588600068009000986E
:100F400030F02E0000900098C00409D40800C0B210
:100F5000012805D1009850F4805013F58864206072
:100F60000098C00409D50800C0B2002805D1009837
:100F700030F4805013F588642060002012BC704764
:100F80000100080010F58060406980B27047F0B43D
:100F900003001C000D00EDB2002614EB451010F507
:100FA000A0600068C0F38142002A01D0022A4DD11E
:100FB00014EB451010F5A060006850F0804014EB71
:100FC000451717F5A0673860D86A10F47F0F30D145
:100FD00014EB451010F5A060006820F0004014EB01
:100FE000451717F5A067386014EB451010F5A060A1
:100FF000006850F0004014EB451717F5A067386003
:1010000014EB451010F5A060006830F4004014EBBC
:10101000451717F5A0673860761C40F2E930864224
:1010200063D214EB451010F5A06000680028F3D4DB
:101030005BE014EB451010F5A060006850F0004034
:1010400014EB451717F5A06738604EE014EB451018
:1010500010F5A060006850F0804014EB451717F5BC
:10106000A067386014F58060006910F47F0F30D1FC
:1010700014EB451010F5A060006820F0004014EB60
:10108000451717F5A067386014EB451010F5A06000
:10109000006850F0004014EB451717F5A067386062
:1010A00014EB451010F5A060006830F4004014EB1C
:1010B000451717F5A0673860761C40F2E930864284
:1010C00013D214EB451010F5A06000680028F3D48B
:1010D0000BE014EB451010F5A060006850F00040E4
:1010E00014EB451717F5A06738600020F0BC704777
:1010F0002DE9F04105002E0000272800FFF7A1FE92
:1011000010212800FFF7A4FE2800FFF7B3FE0021FE
:10111000102912D216EB411010F5A060006850F0B3
:10112000804020F0004030F40040040016EB4110F5
:1011300010F5A0600460491CEAE75FF00008B8F110
:10114000100F1FD216EB481010F5A060006850F089
:10115000804050F0004030F40040040016EB48108E
:1011600010F5A06004607F1C40F2E930874206D28F
:1011700016EB481010F5A06000680028F3D418F1B1
:101180000108DCE75FF0FF3016F5806148616861B7
:101190002800FFF74FFE0020BDE8F08110B50400E5
:1011A000D4F8C00200F036F810BD10B50400D4F831
:1011B000C00200F051F810BD10B50400D4F8C00210
:1011C00000F064F810BD10B50400D4F8C00200F0BF
:1011D0003BF810BD10B50400D4F8C00200F038F898
:1011E00010BD704710B50400D4F8C402FFF78DF8A5
:1011F000002010BD10B50400D4F8C402FFF79CF81D
:10120000002010BD80B50248FEF7DEFF01BD0000E2
:101210002400002010B50400D4F8BC02401CC4F81F
:10122000BC02200000F001F810BD10B504002078C9
:101230000B2808D1D4F87802002804D02000D4F874
:1012400078128969884710BD012180F81F12704704
:10125000002180F81F12704710B504002078002884
:101260000CD1012084F81E02D4F8C80200280BD04B
:1012700004212000D4F8C822904705E094F81F020A
:10128000012801D102202070002010BD10B50400FB
:101290002000FFF7AFFF2179200000F017F86179F7
:1012A000200000F013F8002084F81E02D4F8C802D1
:1012B000002804D005212000D4F8C822904720003F
:1012C000FFF790FF03202070002010BD02000800EF
:1012D000C0B20B280DD20800C0B202EB8000D0F8DB
:1012E00080024004400C0B00DBB202EB8303C3F826
:1012F00080020020704730B4002513E050F8042B22
:10130000D30744BFA9F101039A18091F042942F821
:10131000045BFAD213468C0744BF15809B1CC90797
:1013200048BF1D7050F8041B0029E7D130BC70473E
:1013300000000000000000000000000000000000AD
:10134000000000000000000000000000000000009D
:1013500000000C000C000C000C000C000C000C0039
:101360000C0000000C000000000000000000000065
:10137000000000001DC01DC008800880088000001B
:10138000000000000000000000000000000000005D
:1013900000000D800D800D800D803FC01B003FC000
:1013A0001B001B001B001B000000000000000000D1
:1013B00004001F803180318038001E000F00038040
:1013C000318031803F000400040000000000000074
:1013D000000018002400240018C007801E0031807F
:1013E00002400240018000000000000000000000F8
:1013F000000000000F001800180018000C001D80ED
:10140000370033001D8000000000000000000000D5
:1014100000000000070007000200020002000000B8
:1014200000000000000000000000000000000000BC
:1014300000000300030006000E000C000C000C006E
:101440000C000E0006000300030000000000000076
:101450000000180018000C00060006000600060038
:10146000060006000C001C00180000000000000030
:101470000000060006003FC03FC00F001F8019801B
:10148000000000000000000000000000000000005C
:101490000000000000000400040004003F8004007D
:1014A0000400040000000000000000000000000034
:1014B000000000000000000000000000000000002C
:1014C0000000060004000C000800080000000000F6
:1014D0000000000000000000000000003F8000004D
:1014E00000000000000000000000000000000000FC
:1014F00000000000000000000000000000000000EC
:1015000000000C000C0000000000000000000000C3
:1015100000C000C0018001800300030006000C0031
:101520000C0018001800300030000000000000001F
:1015300000000E001B00318031803180318031800D
:1015400031801B000E0000000000000000000000C1
:10155000000006003E000600060006000600060029
:10156000060006003FC00000000000000000000070
:1015700000000F00198031803180030006000C004C
:10158000180030003F800000000000000000000054
:1015900000003F006180018003001F000380018084
:1015A000018061803F00000000000000000000009A
:1015B0000000070007000F000B001B0013003300A2
:1015C0003F8003000F8000000000000000000000CA
:1015D00000001F801800180018001F0011800180F3
:1015E000018021801F0000000000000000000000BA
:1015F000000007801C00180030003700398031805F
:10160000318019800F000000000000000000000081
:1016100000007F00430003000600060006000600ED
:101620000C000C000C000000000000000000000096
:1016300000001F003180318031801F0031803180F7
:10164000318031801F000000000000000000000019
:1016500000001E0033003180318033801D80018006
:10166000030007003C000000000000000000000034
:1016700000000000000000000C000C000000000052
:1016800000000C000C000000000000000000000042
:101690000000000000000000030003000000000044
:1016A0000000060004000800080000000000000020
:1016B0000000000000C003000400180060001800D3
:1016C0000400030000C00000000000000000000053
:1016D000000000000000000000007FC000007FC08C
:1016E00000000000000000000000000000000000FA
:1016F00000000000600018000400030000C00300A8
:10170000040018006000000000000000000000005D
:10171000000000001F0031803180018007000C00B4
:101720000C0000000C0000000000000000000000A1
:1017300000000E00110021002100270029002900CF
:101740002700200011000E00000000000000000033
:10175000000000003F000F000900198019801F8061
:1017600030C030C079E00000000000000000000040
:10177000000000007F003180318031803F003180E7
:10178000318031807F000000000000000000000078
:10179000000000001F4030C060406000600060003A
:1017A000604030801F0000000000000000000000CA
:1017B000000000007F00318030C030C030C030C039
:1017C00030C031807F0000000000000000000000F9
:1017D000000000007F803080308032003E00320008
:1017E000308030807F80000000000000000000009A
:1017F000000000007FC03040304032003E00320028
:10180000300030007C0000000000000000000000FC
:10181000000000001E80318060806000600067C0B2
:10182000618031801F000000000000000000000007
:10183000000000007BC03180318031803F803180EA
:10184000318031807BC000000000000000000000FB
:10185000000000003FC0060006000600060006006B
:10186000060006003FC0000000000000000000006D
:10187000000000001FC0030003000300030063001A
:10188000630063003E000000000000000000000054
:10189000000000007BC03180330036003C003E0079
:1018A0003300318079C0000000000000000000001B
:1018B000000000007E0018001800180018001840F2
:1018C000184018407FC00000000000000000000029
:1018D00000000000E0E060C071C07BC06AC06EC064
:1018E00064C060C0FBE000000000000000000000D9
:1018F0000000000073C0318039803D803580378022
:10190000338031807980000000000000000000007A
:10191000000000001F00318060C060C060C060C077
:1019200060C031801F0000000000000000000000C7
:10193000000000007F0031803180318031803F0025
:10194000300030007E0000000000000000000000B9
:10195000000000001F00318060C060C060C060C037
:1019600060C031801F000CC01F800000000000001C
:10197000000000007F003180318031803E00330064
:10198000318031807CE00000000000000000000099
:10199000000000001F803180318038001F0003806C
:1019A000318031803F000000000000000000000096
:1019B000000000007F804C804C804C800C000C00AC
:1019C0000C000C003F0000000000000000000000C0
:1019D000000000007BC03180318031803180318057
:1019E000318031801F000000000000000000000076
:1019F000000000007BC0318031801B001B001B00F9
:101A00000A000E000E0000000000000000000000B0
:101A100000000000FBE060C064C06EC06EC02A80A1
:101A20003B803B803180000000000000000000008F
:101A3000000000007BC031801B000E000E000E0075
:101A40001B0031807BC0000000000000000000008F
:101A50000000000079E030C019800F000600060089
:101A6000060006001F8000000000000000000000CB
:101A7000000000003F8021802300060004000C00CD
:101A8000188030803F80000000000000000000004F
:101A9000000007800600060006000600060006009B
:101AA0000600060006000600078000000000000097
:101AB00030003000180018000C000C000600030075
:101AC00003000180018000C000C000000000000091
:101AD00000001E00060006000600060006000600C4
:101AE00006000600060006001E00000000000000C0
:101AF00004000A000A00110020802080000000007D
:101B000000000000000000000000000000000000D5
:101B100000000000000000000000000000000000C5
:101B20000000000000000000000000000000FFE0D6
:101B30000800040002000000000000000000000097
:101B40000000000000000000000000000000000095
:101B500000000000000000001F00018001801F80C5
:101B6000318033801DC00000000000000000000034
:101B700000007000300030003700398030C030C0C5
:101B800030C0398077000000000000000000000035
:101B900000000000000000001E80318060806000B6
:101BA000608031801F000000000000000000000085
:101BB00000000380018001801D803380618061808E
:101BC000618033801DC000000000000000000000A4
:101BD00000000000000000001F00318060C07FC0D6
:101BE000600030C01F800000000000000000000006
:101BF000000007E00C000C003F800C000C000C0003
:101C00000C000C003F8000000000000000000000FD
:101C100000000000000000001DC033806180618072
:101C2000618033801D80018001801F000000000062
:101C30000000700030003000370039803180318082
:101C4000318031807BC000000000000000000000F7
:101C500000000600060000001E0006000600060048
:101C6000060006003FC00000000000000000000069
:101C700000000600060000003F0003000300030010
:101C8000030003000300030003003E000000000007
:101C90000000700030003000378036003C003C000F
:101CA0003600330077C00000000000000000000094
:101CB00000001E00060006000600060006000600E2
:101CC000060006003FC00000000000000000000009
:101CD00000000000000000007F8036C036C036C023
:101CE00036C036C076E000000000000000000000B2
:101CF0000000000000000000770039803180318052
:101D0000318031807BC00000000000000000000036
:101D100000000000000000001F00318060C060C0B3
:101D200060C031801F0000000000000000000000C3
:101D300000000000000000007700398030C030C093
:101D400030C039803700300030007C0000000000D7
:101D500000000000000000001DC033806180618031
:101D6000618033801D800180018007C00000000079
:101D700000000000000000007B801CC0180018005C
:101D8000180018007F0000000000000000000000A4
:101D900000000000000000001F8031803C001F0098
:101DA000038031803F0000000000000000000000C0
:101DB00000001800180018007F0018001800180014
:101DC000180018800F000000000000000000000054
:101DD00000000000000000007380318031803180FD
:101DE000318033801DC000000000000000000000B2
:101DF00000000000000000007BC0318031801B002B
:101E00001B000E000E00000000000000000000009B
:101E10000000000000000000F1E060C064C06EC07F
:101E20003B803B803180000000000000000000008B
:101E300000000000000000007BC01B000E000E0030
:101E40000E001B007BC0000000000000000000002E
:101E5000000000000000000079E030C01980198007
:101E60000B000F00060006000C003E000000000002
:101E700000000000000000003F80218003000E00F1
:101E8000180030803F8000000000000000000000CB
:101E9000000006000C000C000C000C000C001800E8
:101EA0000C000C000C000C000600000000000000FC
:101EB00000000600060006000600060006000600F8
:101EC00006000600060006000600000000000000F4
:101ED00000000C00060006000600060006000300D5
:101EE00006000600060006000C00000000000000CE
:101EF0000000000000000000000018002480030023
:101F000000000000000000000000000000000000D1
:101F100010B40020DFF83C160860BFF34F8FDFF8E5
:101F200038060168C1F34E32C1F3C900030043F61D
:101F3000E07010EA421050EA8370DFF8204620601B
:101F40001800431E0028F2D11000421E0028EBD1D9
:101F5000BFF34F8FBFF36F8F10BC704738B50400CD
:101F60000D00DFF8FC0505805FF0404200212000F5
:101F700000F018F85FF07F41200000F0D4F931BD87
:101F800038B504000D00DFF8D80505805FF07F410B
:101F9000200000F0C8F95FF040420021200000F06E
:101FA0007DF831BDF0B58DB004000D001600A06BBA
:101FB0000090E06B0190206C0290606C0390A06C2C
:101FC00004900996E06C0590206D069094F86800E6
:101FD0008DF8300094F869008DF8310094F86A00AB
:101FE0008DF83200606D0790A06D0890206E0A9009
:101FF000606E0B9000200090200000F076F80190B9
:1020000000200290200000F078F803900996FF204D
:1020100005900020069000208DF8300000208DF8FB
:10202000310000208DF83200200000F05EF80A90A8
:10203000200000F062F80B902A0092B2694620005E
:1020400000F011FE200000F050F8DFF818150880AD
:10205000200000F052F8DFF810150880DFF80C754A
:10206000380000F066F8F888DFF804150880B888B2
:10207000DFF800150880DFF800050C212A0092B275
:102080004A4302445FF0FF3353605FF07F422B000E
:102090009BB201FB03F142500DB0F0BD78B58DB09D
:1020A00004000D0016000020009000200190002088
:1020B0000290002003900996FF20059000200690D2
:1020C00000208DF8300000208DF8310000208DF8C0
:1020D000320000200A9000200B902A0092B269463C
:1020E000200000F0C0FD0EB070BDDFF890140A684B
:1020F00034214A431044006E7047DFF880140A68A8
:1021000034214A431044406E7047DFF86C24DFF8F6
:102110006C140B680C214B43D0507047DFF85824E7
:10212000DFF858140B680C214B4302EB03014860A5
:102130007047DFF84424DFF844140B680C214B434C
:1021400002EB0301886070472DE9F04704000D00A1
:1021500016001F005FF03408DFF82094D9F8000063
:1021600008FB00F02044806C022871D1380000F098
:1021700037FC8246DFF8E80300885A2836D0B428B6
:1021800017D0B0F5877F4AD02000FFF7AEFFD9F80F
:10219000001008FB01F804EB0801C96D320092B28F
:1021A00000FB02F010FA85F011EB4001A1F800A04D
:1021B000B7E02000FFF799FFD9F8001008FB01F8FD
:1021C00004EB0801CA6DDFF8A0130B88310089B257
:1021D0005B1ADFF89013098800FB0310290089B20D
:1021E000401A12EB4002A2F800A09AE02000FFF78C
:1021F0007CFFD9F8001008FB01F804EB0801CA6D58
:102200002B009BB2DFF85C13098800FB0310310040
:1022100089B2401A12EB4002A2F800A081E020002F
:10222000FFF763FFD9F8001008FB01F804EB080181
:10223000CA6DDFF834130B88290089B25B1A00FBE2
:1022400003F010FA86F012EB4002A2F800A068E05A
:10225000DFF80C0300885A2834D0B42816D0B0F523
:10226000877F47D02000FFF740FFD9F8001008FB18
:1022700001F804EB0801C96D320092B200FB02F0D4
:1022800010FA85F011EB80010F604AE02000FFF7A3
:102290002CFFD9F8001008FB01F804EB0801CA6D07
:1022A000DFF8C4120B88310089B25B1ADFF8B41270
:1022B000098800FB0310290089B2401A12EB800242
:1022C00017602EE02000FFF710FFD9F8001008FB80
:1022D00001F804EB0801CA6D2B009BB2DFF88412F1
:1022E000098800FB0310310089B2401A12EB80020A
:1022F000176016E02000FFF7F8FED9F8001008FB81
:1023000001F804EB0801CA6DDFF85C120B882900A4
:1023100089B25B1A00FB03F010FA86F012EB800220
:102320001760BDE8F0877FB504000D005FF0FF3057
:10233000FFF7F4FE5FF07F40FFF7E7FE2000FFF7B6
:10234000DCFE06002000FFF7D0FE0300DFF82C12B1
:1023500002950020019000960A683420424304EB65
:102360000200C26D0968200000F0EBFA7FBD2DE984
:10237000FE4304000D0016001F00DDF82880DDF884
:102380002C904846FFF7CAFE4046FFF7BEFE0C21E0
:10239000DFF8E821DFF8E831CDF80490CDF80080CF
:1023A000BC465FFA8CFCBCF1200C10684843184412
:1023B0008068C08800FB0CFC1068484318448068A3
:1023C0008088C01D5FF0080E90FBFEF000FB0CFC47
:1023D000106801FB00F103EB01008068006800EB6E
:1023E0000C03320092B2290089B2200000F024FAD6
:1023F000BDE8F7832DE9F74F84B01C005FF00108BA
:1024000000250026002702940298411C02910078C2
:10241000002801D0761CF7E70498FFF766FEDFF886
:102420005821DFF858110B680C214B4302EB0301D4
:1024300089688988B0FBF1F003909DF8400001287D
:1024400004D02DD3032815D017D329E0BDF81410DC
:10245000039A921BDFF82031DFF8200107680C2077
:10246000474303EB0700806880884243520812FA12
:1024700081F717E0BDF8147014E0BDF814707F42C6
:102480000399891BDFF8F020DFF8F00003680C20C7
:10249000434302EB03008068808800FB017701E082
:1024A000BDF81470380080B2002804D0380080B223
:1024B000B0F5004F01DB012007002078002802D092
:1024C0005FF0010801E05FF000080498FFF70DFEDF
:1024D0005FF00C09DFF8A4A0DFF89CB02A0092B2EC
:1024E000DAF8001009FB01F159448968898801FB79
:1024F000120080B2DAF8001009FB01F15944896832
:102500008988884201D3012100E000214046C0B201
:1025100008421CD012980190119800902378BDF8C1
:1025200018001349098810FB01F292B2390089B2F0
:102530000498FFF71CFFDAF8000009FB00F90BEB29
:10254000090080688088C719641C6D1CB5E707B056
:10255000BDE8F08F84ED00E080ED00E074EF00E076
:102560001C0B00201C0000201E000020100000207A
:102570001E0B0020200B0020CC0A0020180B00208E
:10258000CC0A00202DE9FE4F05000E0017009846EA
:102590000C9CDDF83490002000905FF0340BDFF8E5
:1025A0002CA4DAF800000BFB00F02844806C022811
:1025B0006FD1DFF81C0400885A2837D0B42816D011
:1025C000B0F5877F4BD02800FFF78FFDDAF80010B9
:1025D0000BFB01FB05EB0B01D1F85CB0390089B2B4
:1025E00000FB01F010FA86F01BEB400BC0E0280066
:1025F000FFF77BFDDAF800100BFB01FB05EB0B018D
:10260000D1F85CB08A490A88390089B2521A21008F
:1026100089B2521A8749098800FB0210414689B2E3
:1026200011FA86F1401A1BEB400BA1E02800FFF7DE
:102630005CFDDAF800100BFB01FB05EB0B01D1F898
:102640005CB0320092B27B49098800FB0210210085
:1026500089B211FA87F1401A1BEB400B88E0280081
:10266000FFF743FDDAF800100BFB01FB05EB0B0154
:10267000D1F85CB06E490A88310089B2521A4146DD
:1026800089B2521A00FB02F010FA87F01BEB400BE4
:102690006EE0DFF83C0300885A2837D0B42816D003
:1026A000B0F5877F4BD02800FFF71FFDDAF8001048
:1026B0000BFB01FB05EB0B01D1F85CB0390089B2D3
:1026C00000FB01F010FA86F01BEB800B50E02800B5
:1026D000FFF70BFDDAF800100BFB01FB05EB0B011C
:1026E000D1F85CB052490A88390089B2521A2100E7
:1026F00089B2521A4F49098800FB0210414689B23B
:1027000011FA86F1401A1BEB800B31E02800FFF72D
:10271000ECFCDAF800100BFB01FB05EB0B01D1F828
:102720005CB0320092B24349098800FB02102100DC
:1027300089B211FA87F1401A1BEB800B18E02800D0
:10274000FFF7D3FCDAF800100BFB01FB05EB0B01E4
:10275000D1F85CB036490A88310089B2521A414634
:1027600089B2521A00FB02F010FA87F01BEB800BC3
:10277000DFF85C0200885A282ED0B42817D0B0F5B4
:10278000877F3ED02800FFF7B0FCCDF80890414687
:1027900089B2401A0190200080B2009043469BB25B
:1027A0005A46DAF80010280000F0CBF83DE0280087
:1027B000FFF79BFCCDF80890414689B2401A019082
:1027C000200080B2009043469BB25A46DAF80010CF
:1027D000280000F0B6F828E02800FFF786FCCDF8C6
:1027E0000890210089B2401A0190404680B20090C2
:1027F00023009BB25A46DAF80010280000F0A1F836
:1028000013E02800FFF771FCCDF80890210089B291
:10281000401A0190404680B2009023009BB25A4675
:10282000DAF80010280000F08CF8BDE8F78F0000FF
:102830001E0000201C0000202DE9FE4F06000F00A6
:10284000904600205FF000090C21DFF88021DFF8BE
:102850008431D2F800C001FB0CFC9C44DCF808C0B9
:10286000BCF806E0ADF802E0126801FB02F1194481
:102870008968B1F804A0514689B2C91D082291FBAC
:10288000F2F1524692B2D2EBC1028DF800205FF015
:10289000000BBDF80200834551D2504680B2C01DE6
:1028A000082190FBF1F00BFB00F0029908440400B2
:1028B000504680B2C01D082190FBF1F0012802D0E3
:1028C000022803D008E0207805000DE02078617828
:1028D00051EA00210D0007E020786178090251EAF1
:1028E0000041A07801430D0000208146504680B28F
:1028F00081451FD2BAEB09019DF800004118481E1E
:102900002900C140C80709D50C9B424692B219EB79
:10291000070189B23000FFF717FC08E00D9B424623
:1029200092B219EB070189B23000FFF70DFC19F1E3
:102930000109DBE718F101081BF1010BA9E7BDE86C
:10294000F78F2DE9F84F04000D0016001F00DDF889
:102950002880DDF82C90DDF830A0DFF87CB05FF443
:102960004030CBF80400194801683420414304EB9F
:102970000100806C022803D10220CBF8080002E09D
:102980000020CBF80800CBF80C90DFF85000CBF813
:102990000000584600F042FB002815D12900584697
:1029A00000F0D4FC00280FD1FFF7B2FACDF8008078
:1029B0003B0032005146584600F062FB002803D12C
:1029C0006421584600F081FBBDE8F18F180B002010
:1029D0001C0B0020CC0A00207809002000B0024027
:1029E00070B40200002613001B0C1400240A15000A
:1029F0001800C0B2000210F478402100C9B2C9002A
:102A000011F4FC6108432900C9B2C908C9B20843DE
:102A100080B270BC704730B40EE002684368024474
:102A20000830DC0744BFA9F10104E31852F8045B45
:102A300043F8045B091FF9D150F8041B0029ECD1BD
:102A400030BC7047F8B50400002C01D101208BE0A8
:102A500094F8A100002805D1002084F8A0002000EF
:102A600000F046FD022084F8A1002068806920F073
:102A7000704021688861206881696268A0680243AB
:102A8000E068024320690243114320688161DFF856
:102A9000E80221688968014022689160616909043F
:102AA00022689268A3690B431A4323689A602268DC
:102AB000D26802402368DA60E26912042368DB68A6
:102AC000256A15432B432568EB6023681B69034087
:102AD00025682B61636A1B0425682D69A66A1E435D
:102AE00035432668356125686D6928402568686129
:102AF000E56A2D0420684069266B2E433043266822
:102B0000706194F83560360294F836703F0420689E
:102B1000C06A10F07F40D4F800C0CCF82C002068C8
:102B2000D0F82CC056EA070E94F8340050EA0E0E86
:102B30005EEA0C0C2068C0F82CC02068406B50F096
:102B40000600D4F800C0CCF834002068806950F04A
:102B50000100D4F800C0CCF818000020C4F8A4008C
:102B6000012084F8A1000020F2BD10B5040020006F
:102B700000F00EFE0020C4F8A400002084F8A1009C
:102B8000002084F8A000002010BD70B5040020686B
:102B9000856B2068466B680719D5700717D52068C4
:102BA000406B30F004002168486304202168C8634A
:102BB000D4F8A40050F00100C4F8A400042084F864
:102BC000A100002084F8A000200001F0D1F9A8079E
:102BD00019D5B00717D52068406B30F00200216886
:102BE000486302202168C863D4F8A40050F00200B2
:102BF000C4F8A400042084F8A100002084F8A000F8
:102C0000200001F0B5F915F0010016F00101C0B285
:102C1000084211D02068406B40084000216848639A
:102C200001202168C863012084F8A100002084F8F5
:102C3000A000200001F09DF9280713D5300711D519
:102C40002068406B30F00800216848630820216844
:102C5000C863012084F8A100002084F8A0002000AF
:102C600001F088F970BD70B504000D00160094F8ED
:102C7000A000012801D102201DE0012084F8A0005D
:102C8000022084F8A100342000FB06F020443830F4
:102C90002900342201F070F932002900200000F0F0
:102CA00070F8012021684862012084F8A10000200A
:102CB00084F8A000002070BDF0B5040094F8A000D6
:102CC000012801D1022055E0012084F8A000022053
:102CD00084F8A100342000FB02F02044836C002B18
:102CE00001D104250EE0012B01D103250AE0042BBC
:102CF00005D0022B03D0032B01D0072B01D10225D5
:102D000000E0012505FB01F636042768802000FB62
:102D100002778437D4F800C0802000FB02CC1CF17D
:102D2000840CDCF82C006FF31C40F862DFF8E472CE
:102D3000386850F001003860D4F800C0802000FBF3
:102D400002CC1CF1840CD4F800E0802000FB02EEE1
:102D50001EF1840EDEF82C003043CCF82C003868CD
:102D600050F001003860012084F8A100002084F8B0
:102D7000A0000020F0BD000000F800F090F8A100D5
:102D800070472DE9F04103004C681868C068C0F333
:102D90000B40041924041D68802000FB0255843573
:102DA0001E68802000FB02668436706810F4704054
:102DB00068601D68802000FB025584350E68186825
:102DC000C068C0F30B408619761C26436E60CD6840
:102DD0001868C0684005400D45192D041E68802004
:102DE00000FB026684361F68802000FB0277843770
:102DF000B86810F47040B0601E68802000FB026666
:102E0000843688681F68FF687F057F0D3818401C6E
:102E10002843B0601E68802000FB026684361F686D
:102E2000802000FB027784373869C008C000306119
:102E30001E68802000FB026684360869306191F8C4
:102E40003160360291F832703F04D1F818C05FEA61
:102E50000C6CD3F800E0802000FB02EE1EF1840E23
:102E6000DEF81800D3F800E0802000FB02EE1EF12F
:102E7000840E0020CEF81800D3F800E0802000FB7C
:102E800002EE1EF1840E91F83000304338435CEAC4
:102E90000000CEF81800D3F800E0802000FB02EE1E
:102EA0001EF1840ED3F80080802000FB028818F108
:102EB0008408D8F81400000A0002CEF81400D3F8F1
:102EC00000E0802000FB02EE1EF1840E4869CEF87F
:102ED0001400D3F800E0802000FB02EE1EF1840E07
:102EE000D3F80080802000FB028818F18408D8F80D
:102EF0001C80494810EA0808CEF81C80D3F800E08E
:102F0000802000FB02EE1EF1840ED1F81C80086ABE
:102F100050EA0808CEF81C80D3F800E0802000FBBF
:102F200002EE1EF1840EDEF82800D3F800E08020C7
:102F300000FB02EE1EF1840E0020CEF82800D3F82C
:102F400000E0802000FB02EE1EF1840E486ACEF8FD
:102F500028000869002801D1042413E00869012829
:102F600001D103240EE00869042808D0086902286A
:102F700005D00869032802D00869072801D1022476
:102F800000E001241D68802000FB025584351E6886
:102F9000802000FB02668436F06A10F0E020E862D0
:102FA0001D68802000FB025584358E6A6643D1F887
:102FB00004E00868BEEB000E04FB0EFE1EF1030EDB
:102FC0005EEA064EC5F82CE01D68802000FB025525
:102FD00084351E68802000FB02668436306BC00A90
:102FE000C00228631D68802000FB02558435C86A32
:102FF00028631D68802000FB025584352D6855F03C
:1030000001051E68802000FB026684363560BDE83D
:10301000F081000024680140F8F8FFFF10B50400BB
:10302000002C01D101202AE094F83900002805D1B4
:10303000002084F83800200000F05CFF022084F8B3
:1030400039002068016831F440316068014320682C
:1030500001602068416BC908C900A068014320686D
:1030600041632068016C890B8903E0680143206893
:1030700001640020E063012084F83900002010BDC5
:103080002DE9FC4104000D0016001F00DDF8208032
:1030900094F83800012801D1022014E0012084F8BE
:1030A0003800022084F83900CDF800803B0032005F
:1030B0002900200000F0ACF92068006850F0010001
:1030C000216808600020BDE8F681F8B506000C0014
:1030D0000020009030680068C0073CD500F090FFE9
:1030E000070030684068800735D430684068009039
:1030F000009810F0210F18D00098800603D5F06BCF
:1031000050F00200F0630098C00703D5F06B50F058
:103110000100F063212031688860042086F83900BE
:10312000002086F8380001206EE014F1010FD8D09D
:1031300000F066FFC01B844201D3002CD1D1F06B9C
:1031400050F02000F063032086F83900002086F854
:103150003800032058E03068C56915F02005306854
:10316000406A10F020000543002D43D000F048FFD6
:10317000070030684068C0063CD430684068009062
:10318000009810F0290F1FD00098000703D5F06BAE
:1031900050F00400F0630098800603D5F06B50F007
:1031A0000200F0630098C00703D5F06B50F00100F7
:1031B000F063292031688860042086F839000020F7
:1031C00086F8380001201FE014F1010FD1D000F083
:1031D00017FFC01B844201D3002CCAD1F06B50F002
:1031E0002000F063032086F83900002086F83800BC
:1031F000032009E0122031688860012086F8390038
:10320000002086F838000020F2BD70B50400206868
:10321000456820680668E8071AD5F00518D52068C3
:10322000006830F4807021680860E06B50F00100A5
:10323000E063012021688860042084F839000020C0
:1032400084F838006069002802D02000616988474E
:10325000A8061AD5B00418D52068006830F40050CC
:1032600021680860202021688860E06B50F002002F
:10327000E063042084F83900002084F83800606995
:10328000002802D020006169884728071AD5300538
:1032900018D52068006830F40060216808600820B4
:1032A00021688860E06B50F00400E063042084F83B
:1032B0003900002084F838006069002802D020001E
:1032C0006169884768070DD570050BD520680068CF
:1032D00030F4806021680860042021688860200044
:1032E00000F094FEA80718D5B00516D52068006830
:1032F00030F4007021680860022021688860E06B6B
:10330000E063012084F83900002084F83800206947
:10331000002802D0200021698847E80615D5F0046E
:1033200013D52068006830F48050216808601020B0
:1033300021688860E06BE063012084F83900002098
:1033400084F83800200000F062FE70BD70B4020006
:103350005068B0F5403F01D05068002892F838001E
:10336000012801D102204EE0012082F8380002201D
:1033700082F839000801104410F118035C6898685D
:1033800054EA0044214D58680A2802D05868092898
:1033900004D1D86810F07F40044302E0D86854EAB2
:1033A0000064002914D11068406AA84320431668BD
:1033B000706218681668B06158680A2802D05868A8
:1033C000092819D1D86820F07F401668B06213E050
:1033D0001068C069A84320431668F0611868166831
:1033E000306158680A2802D05868092804D1D86882
:1033F00020F07F4016683062012082F839000020FA
:1034000082F83800002070BC704700000F0003FFF6
:103410002DE9F043079D0468D4F8449019F0404921
:1034200055EA034454EA09090468C4F8449004685E
:10343000E2634468B4F5403F56D111F07F44270061
:1034400011F47F04A44611F47F44A64601F0FF0462
:10345000A0468468002C06D15CEA0E043C4358EA7E
:10346000040426003DE08468012C05D15CEA0E04CA
:1034700058EA0404260034E08468022C0DD15FEA87
:10348000DC4C5FEA9E2E5FEAD8085FEACC2454EA5F
:103490004E1458EA0404260023E08468032C10D15B
:1034A000FF0F5FEADC4C5FEADE2E5FEAD8085FEAD6
:1034B0008C2454EA4E1454EAC73458EA0404260013
:1034C0000FE03F0F5FEA1C5C5FEA1E3E5FEA1818E0
:1034D0005FEA0C2454EA0E1454EA073458EA040450
:1034E00026000468A66301E00468E160BDE8F0839B
:1034F0002DE9F04786B004002068DFF83C1A8842C6
:1035000040F04381DFF8340A016851F080610160C6
:10351000006810F0806005900598DFF8D409016814
:1035200051F001010160016811F001010591059957
:10353000016851F002010160016811F0020105917A
:103540000599016851F010010160016811F0100146
:1035500005910599016851F480710160016811F4C9
:10356000807105910599016851F40071016001684D
:1035700011F4007105910599016851F480610160B1
:10358000006810F4806005900598022001900020EA
:103590000290022003900E2004904FF40045009505
:1035A000DFF89C696946300000F032FD0120009090
:1035B000DFF890796946380000F02AFD022000907B
:1035C0006946380000F024FD042000906946380068
:1035D00000F01EFD082000906946380000F018FD3C
:1035E000102000906946380000F012FD2020009065
:1035F0006946380000F00CFD402000906946380014
:1036000000F006FD802000906946380000F000FDC3
:103610004FF4807000906946380000F0F9FC4FF4D8
:10362000007000906946380000F0F2FC4FF48060B2
:1036300000906946380000F0EBFC4FF40060009009
:103640006946380000F0E4FC01200090DFF8F888BB
:103650006946404600F0DCFC022000906946404686
:1036600000F0D6FC042000906946404600F0D0FCF3
:1036700010200090DFF8BC986946484600F0C8FC6E
:103680004FF4005000906946380000F0C1FC4FF440
:10369000804ACDF800A06946380000F0B9FC0095DA
:1036A0006946380000F0B4FC0820009069464046A6
:1036B00000F0AEFC102000906946404600F0A8FCE7
:1036C000202000906946404600F0A2FC4020009077
:1036D0006946404600F09CFCCDF800A069463000E9
:1036E00000F096FC4FF4805000906946300000F0E6
:1036F0008FFC102000906946DFF8500800F088FC2D
:10370000802000906946404600F082FCCDF800A081
:10371000012001900120029000200390DFF808684A
:103720006946300000F074FC00224FF48041300004
:1037300000F05FFE20200090012001900120029007
:10374000002003906946484600F062FC0095022084
:103750000190002002900020039009200490694607
:10376000300000F055FC00220521582000F0FBFE3F
:10377000582000F00DFF00220521592000F0F3FE33
:10378000592000F005FF00F0FAFF06B0BDE8F08711
:103790002DE9F04104002068DFF89C17884240F0D2
:1037A000A180DFF89807016831F080610160DFF8DF
:1037B00090574FF40041280000F041FDDFF8846786
:1037C0000121300000F03BFD0221300000F037FD08
:1037D0000421300000F033FD0821300000F02FFDFF
:1037E0001021300000F02BFD2021300000F027FDDB
:1037F0004021300000F023FD8021300000F01FFD4B
:103800004FF48071300000F01AFD4FF40071300069
:1038100000F015FD4FF48061300000F010FD4FF412
:103820000061300000F00BFDDFF81C77012138004B
:1038300000F005FD0221380000F001FD04213800F0
:1038400000F0FDFCDFF8EC861021404600F0F7FCAC
:103850004FF40051300000F0F2FC4FF48041300092
:1038600000F0EDFC4FF40041300000F0E8FC0821CE
:10387000380000F0E4FC1021380000F0E0FC2021CA
:10388000380000F0DCFC4021380000F0D8FC4FF498
:103890008041280000F0D3FC4FF48051280000F054
:1038A000CEFC1021DFF8A40600F0C9FC802138000E
:1038B00000F0C5FCDFF870564FF48041280000F09E
:1038C000BEFC2021404600F0BAFC4FF40041280025
:1038D00000F0B5FC582000F062FE592000F05FFEB9
:1038E00000202060BDE8F0812DE9F14F86B0DFF8BF
:1038F0006006016851F001010160006810F00100EC
:1039000005900598DFF8E805016851F48001016031
:10391000016811F4800105910599016851F00801D1
:103920000160016811F0080105910599016851F0E5
:1039300010010160016811F01001059105990168FD
:1039400051F020010160016811F0200105910599F5
:10395000016851F040010160016811F040010591DA
:103960000599016851F080010160016811F0800142
:1039700005910599016851F480710160006810F4A7
:10398000807005900598022001900120029003208C
:1039900003900C2004904FF480440094DFF8B49519
:1039A0006946484600F034FB4FF4004500956946EF
:1039B000484600F02DFB012000906946484600F083
:1039C00027FB022000906946484600F021FB80203A
:1039D0000090DFF860656946300000F019FB4FF495
:1039E000807000906946300000F012FB4FF40077C1
:1039F00000976946300000F00BFB4FF48068CDF86B
:103A000000806946300000F003FB4FF40060009036
:103A10006946300000F0FCFA4FF48050009069468F
:103A2000300000F0F5FA4FF4005000906946300085
:103A300000F0EEFA00946946300000F0E9FA0095D3
:103A40006946300000F0E4FA4FF480700090694657
:103A5000484600F0DDFA00976946484600F0D8FA7B
:103A6000CDF800806946484600F0D2FA4FF48070E5
:103A70000090DFF8BC946946484600F0C9FA009708
:103A80006946484600F0C4FACDF8008069464846C9
:103A900000F0BEFA4FF4006000906946484600F01E
:103AA000B7FA4FF4805000906946484600F0B0FAEB
:103AB0004FF4005000906946484600F0A9FA00947F
:103AC0006946484600F0A4FA00956946484600F069
:103AD0009FFA01200090DFF868A46946504600F084
:103AE00097FA022000906946504600F091FA0420AF
:103AF00000906946504600F08BFA08200090694615
:103B0000504600F085FA402000906946504600F08B
:103B10007FFA802000906946504600F079FA0097BD
:103B20006946504600F074FACDF800806946504668
:103B300000F06EFA01200090DFF81CB46946584688
:103B400000F066FA022000906946584600F060FADC
:103B5000042000906946584600F05AFA0820009068
:103B60006946584600F054FA1020009069465846BD
:103B700000F04EFA202000906946584600F048FABE
:103B80004FF4805000906946584600F041FA4FF4D7
:103B9000005000906946584600F03AFA0094694691
:103BA000584600F035FA00956946584600F030FA5C
:103BB000012000906946DD4800F02AFA02200090BA
:103BC0006946DA4800F024FA102000906946D74888
:103BD00000F01EFA202000906946D44800F018FA40
:103BE000012000906946300000F012FA0220009097
:103BF0006946300000F00CFA1020009069465046EB
:103C000000F006FA202000906946504600F000FAC5
:103C10004FF4807000906946C44800F0F9F9042020
:103C200000906946484600F0F3F908200090694684
:103C3000484600F0EDF9202000906946484600F023
:103C4000E7F900956946B94800F0E2F94FF40060E1
:103C500000906946584600F0DBF9C04D00206860CE
:103C60008020A860EF60C5F810804FF48050686134
:103C7000AC610020E8615FF40030286200206862D7
:103C80000320A8620020E86200202863B44828606E
:103C9000069805630698A863280000F058FE2800DF
:103CA00000F0E4FD00220F21382000F05CFC3820F9
:103CB00000F06EFC07B0BDE8F08F00002DE9F8437E
:103CC0000400A3480168490849000160382000F059
:103CD00066FCA448A249016000F039FE9D4D4FF4F6
:103CE0008041280000F0ABFA4FF40041280000F0BA
:103CF000A6FA0121280000F0A2FA0221280000F013
:103D00009EFA8C4E8021300000F099FA4FF48071B9
:103D1000300000F094FA4FF40071300000F08FFA98
:103D20004FF48061300000F08AFA4FF400613000F7
:103D300000F085FA4FF48051300000F080FA4FF423
:103D40000051300000F07BFA4FF48041300000F069
:103D500076FA4FF40041300000F071FA4FF48071B0
:103D6000280000F06CFA4FF40071280000F067FAA8
:103D70004FF48061280000F062FA6D4D4FF48071BD
:103D8000280000F05CFA4FF40071280000F057FAA8
:103D90004FF48061280000F052FA4FF400612800CF
:103DA00000F04DFA4FF48051280000F048FA4FF42B
:103DB0000051280000F043FA4FF48041280000F041
:103DC0003EFA4FF40041280000F039FA5C4F01211F
:103DD000380000F034FA0221380000F030FA0421F3
:103DE000380000F02CFA0821380000F028FA4021B1
:103DF000380000F024FA8021380000F020FA4FF457
:103E00000071380000F01BFA4FF48061380000F0B8
:103E100016FADFF844810121404600F010FA022131
:103E2000404600F00CFA0421404600F008FA082150
:103E3000404600F004FA1021404600F000FA20212C
:103E4000404600F0FCF94FF48051404600F0F7F98D
:103E50004FF40051404600F0F2F94FF480414046E3
:103E600000F0EDF94FF40041404600F0E8F9DFF8CA
:103E7000BC900121484600F0E2F90221484600F0DA
:103E8000DEF91021484600F0DAF92021484600F01A
:103E9000D6F90121300000F0D2F90221300000F003
:103EA000CEF91021380000F0CAF92021380000F0C6
:103EB000C6F94FF48071484600F0C1F9042128008A
:103EC00000F0BDF90821280000F0B9F920212800F0
:103ED00000F0B5F94FF40041484600F0B0F94FF456
:103EE0000061404600F0ABF900202060BDE8F1839E
:103EF000303802401CB5040020681B49884211D1AB
:103F00001A48016851F400010160006810F40000D3
:103F100000900098002205215A2000F024FB5A202E
:103F200000F036FB13BD0000000402400018024000
:103F3000001C02400010024000680140443802406A
:103F400000200240002402400028024000000240FD
:103F500038380240000C02400014024020080020C3
:103F6000106402408008002000B002403038024057
:103F70007047704770470000103A07D330B4B1E87B
:103F80003810103AA0E83810F9D230BC530724BFDB
:103F9000B1E80810A0E8081044BF51F8043B40F80D
:103FA000043BD20724BF31F8022B20F8022B44BF78
:103FB0000B7803707047121F17D35B0009D151F8BB
:103FC000043B20F8023B1B0C121F20F8023BF6D2E8
:103FD0000BE051F8043B00F8013B1B0A20F8023BC0
:103FE0001B0C121F00F8013BF3D238BF121D521EEA
:103FF00024BF11F8013B00F8013BF8D870470000DE
:1040000001480068704700BF140B002070477047DC
:104010002DE9F84100220023002400260025102D60
:1040200080F00B81012717FA05F213000A681A4085
:1040300014009C4240F0FF804A68022A02D04A687D
:10404000122A1FD12A00D20800EB8202D2F820C027
:104050005FF00F0E15F00702D2B292001EFA02FEB8
:104060003CEA0E0CD1F810E015F00702D2B2920033
:104070001EFA02FE5EEA0C0C66462A00D20800EB2D
:1040800082021662D0F800C05FF0030E2A00D2B29E
:1040900052001EFA02F23CEA020C91F8048018F079
:1040A00003082A00D2B2520018FA02F858EA0C0C9F
:1040B000C0F800C04A68012A08D04A68022A05D020
:1040C0004A68112A02D04A68122A1BD186682A003F
:1040D000D2B252001EFA02F29643D1F80C802A00A6
:1040E000D2B2520018FA02F858EA06068660426810
:1040F000AF40BA434F68C7F30017AF403A43944606
:10410000C0F804C0C6682A00D2B252001EFA02FEED
:1041100036EA0E068F682A00D2B2520097403E431C
:10412000C6604A68D20040F18680DFF8E022176856
:1041300057F480471760126812F480420092009A88
:10414000DFF8CCC22A0092085CF822705FF00F0EF4
:1041500015F00302D2B292001EFA02FE37EA0E07F1
:10416000DFF8B022904201D1002631E0DFF8A8222A
:10417000904201D101262BE0DFF8A022904201D12C
:10418000022625E0DFF89822904201D103261FE0A5
:10419000DFF89022904201D1042619E0A24A904211
:1041A00001D1052614E0A14A904201D106260FE074
:1041B0009F4A904201D107260AE09E4A904201D1CF
:1041C000082605E09C4A904201D1092600E00A2613
:1041D000F6B215F00302D2B29200964037432A009D
:1041E00092084CF82270954E3268A243D1F804C070
:1041F0005FEACC3C00D522433260914F3E68A64333
:10420000D1F804C05FEA8C3C00D526433E608D4F58
:104210003A68A243D1F804C05FEACC2C00D522430F
:104220003A60894F3E68A643D1F804C05FEA8C2CFF
:1042300000D526433E606D1CF1E6BDE8F1812DE915
:10424000F0430023002400250026102E80F0CF80AC
:10425000012717FA06F2130013EA010214009C4228
:1042600040F0C380DFF8A8E1320092085EF8222017
:104270005FF00F0C16F003085FFA88F85FEA880811
:104280001CFA08F818EA02021500624A904202D1AC
:104290005FF0000837E0604A904202D15FF0010809
:1042A00031E05E4A904202D15FF002082BE05C4AA6
:1042B000904202D15FF0030825E05A4A904202D1B1
:1042C0005FF004081FE0584A904202D15FF00508F1
:1042D00019E0564A904202D15FF0060813E0544AB2
:1042E000904202D15FF007080DE0524A904202D19D
:1042F0005FF0080807E0504A904202D15FF00908D9
:1043000001E05FF00A085FFA88F816F00302D2B203
:10431000920018FA02F845452CD116F00302D2B2E9
:1043200092001CFA02F21500320092085EF8222078
:10433000AA43B0465FEA98084EF828203F4AD2F8D0
:1043400000E03EEA040EC2F800E03D4AD2F800E088
:104350003EEA040EC2F800E03A4AD2F800E03EEA33
:10436000040EC2F800E0384AD2F800E03EEA040E3B
:10437000C2F800E05FF0030E0268B0465FFA88F80A
:104380005FEA48081EFA08F832EA080202603200C2
:10439000D20800EB82083200D20800EB8202D2F889
:1043A000209016F00702D2B292001CFA02FC39EA01
:1043B0000C0CC8F820C08268B4465FFA8CFC5FEA37
:1043C0004C0C1EFA0CFC32EA0C0282604268B740C8
:1043D00032EA07074760C7683200D2B252001EFABD
:1043E00002FE37EA0E0EC0F80CE0761C2DE7BDE8A1
:1043F000F0831300DBB2002B03D00B009BB2836170
:1044000003E00B009BB21B048361704744380240F9
:104410000838014000000240000402400008024049
:10442000000C02400010024000140240001802403C
:10443000001C02400020024000240240003C0140D9
:10444000043C0140083C01400C3C014010B410F019
:104450000703DFF8644122684FF6FF010A40DFF8E6
:104460005C1151EA03210A43226010BC7047DFF857
:1044700048010068C0F302207047010049B20029DA
:1044800009D4012210F01F018A404D4903005BB29C
:104490005B0941F823207047010049B200290DD47F
:1044A000012210F01F018A40464903005BB25B09FC
:1044B00041F82320BFF34F8FBFF36F8F704710B4C5
:1044C000020052B2002A05D40A013F4B040064B234
:1044D0001A5508E00A013D4B040064B214F00F04C1
:1044E000234403F8042C10BC704770B4030013F08D
:1044F0000704D4F10700052801D3042001E0D4F11A
:104500000700251D072D01D2002500E0E51E01262C
:1045100016FA00F0401E0140A94016FA05F56D1E7E
:104520002A401143080070BC704710B50400601E9B
:10453000B0F1807F01D301200EE0601E24490860A5
:104540000F215FF0FF30FFF7BAFF0020214908601C
:10455000072021490860002010BD10B5040020008C
:10456000FFF774FF10BD2DE9F04104000D001600A7
:104570000027FFF77CFF8046320029004046FFF706
:10458000B4FF0100200040B2FFF799FFBDE8F081C1
:1045900010B50400200040B2FFF76FFF10BD10B54A
:1045A0000400200040B2FFF777FF10BD10B50400F3
:1045B0002000FFF7BAFF10BD0CED00E00000FA0587
:1045C00000E100E080E100E000E400E018ED00E040
:1045D00014E000E018E000E010E000E010B400207B
:1045E0008E490860BFF34F8F8D480168C1F34E328A
:1045F000C1F3C900030043F6E07010EA421050EA2C
:104600008370884C20601800431E0028F3D11000EE
:10461000421E0028ECD1BFF34F8FBFF36F8F10BC49
:10462000704710B500F041F87F4C804820600020B2
:1046300060600020A0600020E06000202061132066
:1046400060610220A0612D20E061162020624FF4FD
:10465000FB70A06240F24D3060624FF40370206343
:1046600040F21F40E062002084F83400002084F80B
:104670003500002084F836000021200000F069F8A1
:104680002000FEF77BFB2000FEF7DCF900224FF450
:1046900048712000FEF710FB0021200000F0D2F846
:1046A000002063490870002010BD80B55E48016895
:1046B0005E4A914207D10168896949084900026848
:1046C0009161FEF752FA002002BD30B58DB00400B2
:1046D0000D000020009000F029F8019000200290C9
:1046E00000F027F803900995FF2005900020069020
:1046F00000208DF8300000208DF8310000208DF86A
:10470000320000F013F80A9000F013F80B9002202A
:1047100004904FF48060079005200890220092B228
:1047200069464148FEF79FFA0DB030BD4FF448701E
:1047300070474FF4F070704780B5012220213D484A
:10474000FFF757FEC82000F07DFB012038490870B4
:1047500001BD38B504000D003748082101604FF451
:10476000C07141610621C16102218161052101629F
:10477000022181620021C16200F078FB31BD10B5D9
:104780002C4C002220212000FFF733FE142000F0E3
:1047900059FB012220212000FFF72BFE0A2000F008
:1047A00051FB10BD2DE9FC4704000D0016001F0051
:1047B000DDF82C80DDF83090DFF880A05FF4403029
:1047C000CAF80400A06C022803D10220CAF808002D
:1047D00002E00020CAF80800CAF80C801848CAF89D
:1047E00000005046FEF71AFC002815D1290050465B
:1047F000FEF7ACFD00280FD1FFF7F0FE0A980090FD
:104800003B00320049465046FEF73AFC002803D1EF
:104810000A215046FEF759FCBDE8F38784ED00E01D
:1048200080ED00E074EF00E0E80400200068014043
:10483000220B0020001002403806002078090020DA
:1048400000B002407FB504000D00FFF772FF0600C4
:10485000FFF76CFF03000295002001900096E26DC7
:1048600000212000FFF79EFF7FBD000070B504000F
:104870000026FFF7C5FB0500002C01D1012065E0F3
:10488000606A0028002084F83400022084F8350093
:1048900020680068400840002168086020680068BF
:1048A000C0070BD5FFF7ACFB401B0628F6D3202032
:1048B0006065032084F83500032047E02068016824
:1048C000DFF8D80401406268A0680243E068024350
:1048D0002069024360690243A0690243E069024320
:1048E000206A02431143606A042803D1E26A206B04
:1048F000024311432068016020684669F608F6000B
:10490000606A0643606A042810D1A06A0643E06A20
:1049100000280BD0200000F047FA002806D04020E5
:104920006065012084F8350001200FE020684661B1
:10493000200000F019FA01003F22E06D82408A60F9
:1049400000206065012084F83500002070BD10B59E
:104950000400002C01D101203AE094F8350002282F
:1049600001D1022034E0206800684008400021683E
:10497000086000202168086000202168486000204D
:104980002168886000202168C860002021680861D3
:10499000212021684861200000F0E6F901003F2253
:1049A000E06D82408A600020E063002020640020E7
:1049B00060640020A0640020E064002020650020E6
:1049C0006065002084F83500002084F83400002061
:1049D00010BD2DE9F84304000D0016001F005FF024
:1049E0000008D4F8589094F83400012801D102202E
:1049F00039E0012084F8340094F8350001282BD1E7
:104A0000022084F83500002060653B003200290058
:104A1000200000F092F93F21E06D8140C9F80810B4
:104A20002068006850F0160021680860206840691E
:104A300050F0800021684861206C002805D0206873
:104A4000006850F00800216808602068006850F095
:104A500001002168086004E0002084F8340002208E
:104A600080464046C0B2BDE8F28370B50400A56D33
:104A7000FFF7C6FA060094F83500022806D0802019
:104A80006065002084F8340001203BE02068006865
:104A900030F01600216808602068406930F080001E
:104AA00021684861206C002802D1A06C002805D044
:104AB0002068006830F008002168086020680068FD
:104AC000400840002168086020680068C0070ED5D3
:104AD000FFF796FA801B0628F6D320206065002099
:104AE00084F83400032084F8350003200AE03F21D5
:104AF000E06D8140A960002084F83400012084F832
:104B00003500002070BD010091F83500022803D067
:104B100080204865012009E0052081F835000868FB
:104B20000068400840000A68106000207047F8B52F
:104B3000040000200090DFF8680200684FF416516E
:104B4000B0FBF1F5A66D37680821E06D11FA00F0B1
:104B5000074210D02068006840070CD52068006824
:104B600030F0040022681060E06D8140B160606D3B
:104B700050F001006065E06D3900C140C8070BD5F9
:104B800020684069000607D50121E06D8140B160D1
:104B9000606D50F0020060650421E06D11FA00F0D4
:104BA00007420AD020680068800706D5E06D814082
:104BB000B160606D50F0040060651021E06D11FA85
:104BC00000F007422CD020680068000728D5E06D6F
:104BD0008140B16020680068400311D520680068FA
:104BE000000306D4206C00281AD02000216C8847CE
:104BF00016E0A06C002813D02000A16C88470FE0BD
:104C000020680068C00505D42068006830F00800FE
:104C100021680860206C002802D02000216C8847A1
:104C20002021E06D11FA00F007425FD02068006893
:104C3000C0065BD5E06D8140B16094F83500052871
:104C400028D12068006830F01600216808602068CC
:104C5000406930F0800021684861206C002802D152
:104C6000A06C002805D02068006830F0080021689A
:104C700008603F21E06D8140B160002084F834007D
:104C8000012084F83500206D002802D02000216D1D
:104C900088474FE020680068400311D5206800680D
:104CA000000306D4606C002820D02000616C884787
:104CB0001CE0E06B002819D02000E16B884715E06C
:104CC00020680068C0050BD42068006830F0100030
:104CD00021680860002084F83400012084F8350041
:104CE000E06B002802D02000E16B8847606D00284F
:104CF00020D0606DC00717D5052084F835002068E6
:104D0000006840084000216808600098401C00903E
:104D1000854203D320680068C007F6D4002084F8D9
:104D20003400012084F83500E06C002802D0200017
:104D3000E16C8847F1BD406D704730B40468246869
:104D400034F4802405682C60046863608468402C17
:104D500004D10468A2600468E16003E00468A16013
:104D60000468E26030BC7047017801F0FF0110393F
:104D70001822B1FBF2F10B4A525CC265042905D33B
:104D80000268920A9202121D826503E00268920A8A
:104D900092028265806D7047000000003F8010F035
:104DA0000C0000204C8A000810B402000020936A16
:104DB0009169002916D1002B05D0022B03D008D30E
:104DC000032B0DD00DE0D16AC90101D501210800E6
:104DD00035E0D16AB1F1C07F01D1012108002EE098
:104DE0002DE02CE09169B1F5005F18D1002B05D0C2
:104DF000022B03D005D3032B09D00FE001210800BB
:104E00001DE0D16AC90101D50121080017E0D16A6E
:104E1000B1F1C07F01D10121080010E00FE01900BD
:104E20000029022902D9C91E03D008E00121080087
:104E300005E0D16AC90101D501210800FFE7C0B230
:104E400010BC704770B50400FFF7DAF805002600C3
:104E500016F1010F02D0044800783618FFF7D0F899
:104E6000401BB042FAD370BD220000202DE9F84F5C
:104E700005005FF0000B0024002600275FF000080B
:104E80002878C0070ED5DFF87415086830F40000E4
:104E900008600A68686B02430A60686B002801D1E9
:104EA000012007002868000312D5DFF854150A68AE
:104EB00032F44012E86B02430A60E86BB0F5801FE1
:104EC00001D101200700E86B002801D101208046B4
:104ED0002868C00212D5DFF828150A6832F44002AB
:104EE000286C02430A60286CB0F5800F01D10120C4
:104EF0000700286C002801D1012080462868C001E5
:104F000001D5012007002878800677D5DFF8F40462
:104F1000016851F080510160006810F080500090ED
:104F20000098DFF8E494D9F8000050F48070C9F8D4
:104F30000000FFF765F88346D9F80000C00507D4E4
:104F4000FFF75EF8B0EB0B006528F5D3032053E2C2
:104F5000DFF8B894D9F8000010F440700400002C79
:104F60002CD0286B10F44070844227D0D9F8000070
:104F700030F440700400D9F8000050F48030C9F8D3
:104F80000000D9F8000030F48030C9F80000C9F8FA
:104F90000040D9F80000C00710D5FFF731F883466C
:104FA000D9F80000800709D4FFF72AF8B0EB0B000E
:104FB00041F289318842F3D303201DE2286B10F4BB
:104FC0004070B0F5407F0BD1DFF830140A6832F43E
:104FD000F8122B6BDFF8380403401A430A6005E02F
:104FE000DFF81804016831F4F8110160D9F8000005
:104FF000296B0905090D0843C9F800002878C00687
:1050000009D5DFF8FC13086830F0807008600A6882
:10501000A86B02430A602868400407D5DFF8F41340
:105020000A6832F44032686E02430A60286800045D
:1050300007D5DFF8E0130A6832F44022A86E024375
:105040000A602868C00307D5DFF8C8130A6832F47D
:105050004012E86E02430A602868800307D5DFF833
:10506000B4130A6832F44002286F02430A602878B9
:10507000400607D5DFF89C130A6892089200686C16
:1050800002430A602878000607D5DFF888130A680B
:1050900032F00C02A86C02430A602868C00507D5EC
:1050A000DFF870130A6832F03002E86C02430A60DD
:1050B0002868800507D5DFF85C130A6832F0C00263
:1050C000286D02430A602868400507D5DFF84413BD
:1050D0000A6832F44072686D02430A60286800056D
:1050E00007D5DFF830130A6832F44062A86D024336
:1050F0000A602868C00407D5DFF818130A6832F47C
:105100004052E86D02430A602868800407D5DFF842
:1051100004130A6832F44042286E02430A60286889
:10512000400207D5DFF8EC120A6832F08062A86FFF
:1051300002430A60286880020DD5DFF8D8120A6899
:1051400032F00062E86F02430A60E86FB0F1006F6E
:1051500001D1012080462878000701D50120804632
:105160002868400307D5DFF8AC120A6832F04072B5
:10517000686F02430A602868000208D5DFF89412BD
:105180000A6832F08052D5F8800002430A60012F8D
:1051900004D02868B0F1007F40F09980DFF878A251
:1051A000DAF8000030F08060CAF80000FEF728FF4F
:1051B0008146DAF80000000107D5FEF721FFB0EBC9
:1051C00009006528F5D3032016E12878C00716D515
:1051D000686B002813D1DFF844020168C1F3014174
:1051E0000C000168C1F303610E006968220452EAF1
:1051F000811252EA0662A96852EA017202602868C6
:10520000000303D5E86BB0F5801F06D02868C00204
:1052100020D5286CB0F5800F1CD1DFF800020168A2
:10522000C1F301410C000168C1F302710E0069680D
:10523000220452EA8112E96852EA016252EA0672D5
:105240000260DFF8BC010168490949016A6A521E1F
:10525000114301602868C00113D5DFF8C00101685F
:10526000C1F303610C000168C1F302710E006968AB
:105270002A69120452EA811252EA046252EA067260
:105280000260286880010DD568682969090451EA1F
:105290008011E86851EA0061A86851EA0071DFF8FE
:1052A0007C010160DAF8000050F08060CAF800006C
:1052B000FEF7A6FE8346DAF80000000107D4FEF7E9
:1052C0009FFEB0EB0B006528F5D3032094E0B8F106
:1052D000010F40F09080DFF840A1DAF8000030F0D4
:1052E0008050CAF80000FEF78BFE8146DAF8000015
:1052F000800007D5FEF784FEB0EB09006528F5D3E2
:10530000032079E02868000302D5E86B002805D067
:105310002868C00220D5286C00281DD1DFF80001C4
:105320000168C1F301410C000168C1F302710E0074
:105330006969220452EA8112A96952EA016252EAB9
:1053400006720260DFF8B800016831F4F851AA6A09
:10535000521E51EA022101602868800217D5E86FC9
:10536000B0F1006F13D1DFF8B8000168C1F3036139
:105370000C000168C1F302710E0069692A6A120407
:1053800052EA811252EA046252EA067202602878F6
:1053900000071BD5DFF888000168C1F303610C002A
:1053A0000168C1F301410E006969320452EA8112B9
:1053B00052EA0462E96952EA01720260DFF84010C1
:1053C0000A6832F44032E86A02430A60DAF8000000
:1053D00050F08050CAF80000FEF712FE8346DAF85B
:1053E0000000800007D4FEF70BFEB0EB0B00652831
:1053F000F5D3032000E00020BDE8F28F083802401A
:105400008C38024040380240007000407038024042
:10541000FFFCFF0F90380240003802408438024001
:10542000883802407CB504000126FEF7E9FD05003E
:10543000002C01D101205AE0206A402894F8400055
:10544000012801D1022052E0012084F8400094F8A4
:10545000410000280AD1002084F84000200000F01C
:10546000E0FB41F28831200000F0B4FA20680068C7
:1054700030F4F850A168491E50EA01202168086004
:10548000A06C00902B0000222021200000F0A4FA44
:105490000100C9B2002926D121680A6814490A40CE
:1054A000616852EA0162E1680A43E1690A43216ADC
:1054B0000A4321680A6021684A680E490A40216946
:1054C00052EA014261690A43A1690A4321684A60BC
:1054D0002168096851F001012268116000216164AE
:1054E000012184F84110002184F84010C0B276BD3B
:1054F0002FFFFF00FEF8E0FF10B50400002C01D1E3
:1055000001201AE094F84000012801D1022014E0A3
:10551000012084F8400020680068400840002168AD
:105520000860200000F07EFB00206064002084F80A
:105530004100002084F84000002010BD2DE9F84310
:1055400004000D0016005FF00108FEF759FD07008A
:10555000A8690028E8690028286A002894F8400013
:10556000012801D102203DE0012084F8400094F898
:10557000410001282FD100206064022084F84100FE
:1055800000963B0000222021200000F025FA8146F1
:105590004846C0B2002820D100222900200000F097
:1055A00044FA686A002812D100963B0001220221C9
:1055B000200000F011FA81464846C0B200280CD104
:1055C00002202168C860012084F8410005E0012024
:1055D00084F8410001E05FF00209002084F84000F7
:1055E0004846C0B2BDE8F2832DE9F84305000C003F
:1055F00016000027FEF704FD8046286810F12009F8
:1056000095F84000012801D102205EE0012085F8D4
:10561000400095F84100012850D100206864002C1A
:1056200045D0122085F8410028680069401CE862D6
:1056300028680069401CA8626C622868406930F0E4
:10564000406029684861E86A002815D00096434602
:1056500001220421280000F0BFF907003800C0B281
:10566000002809D1686A411C6962007889F8000045
:10567000E86A401EE862E6E73800C0B2002812D1AE
:105680000096434601220221280000F0A5F90700F8
:105690003800C0B2002806D102202968C86028005E
:1056A00000F04CF90700012085F8410008E0686C23
:1056B00050F0080068640120070001E002200700A4
:1056C000002085F840003800C0B2BDE8F2832DE923
:1056D000FC4705000C0016000027FEF791FC8046F1
:1056E0002868D0F81890286810F1200A95F8400032
:1056F000012801D1022063E0012085F8400095F8DF
:105700004100012855D100206864002C4AD0222095
:1057100085F8410028680069401CA8632868006972
:10572000401C68632C632868406930F0406050F08A
:105730008060296848612868C0F81890A86B002824
:1057400015D00096434601220621280000F044F9B6
:1057500007003800C0B2002809D1286B411C29631A
:105760009AF800100170A86B401EA863E6E73800A5
:10577000C0B2002812D1009643460122022128001F
:1057800000F02AF907003800C0B2002806D1022034
:105790002968C860280000F0D1F80700012085F8CA
:1057A000410008E0686C50F00800686401200700C0
:1057B00001E002200700002085F840003800C0B258
:1057C000BDE8F6872DE9FC4704000D0016001F0018
:1057D0005FF00108FEF714FC8146A8690028E8691B
:1057E0000028286A002894F84000012801D10220EE
:1057F0004CE0012084F8400094F8410001283ED19B
:1058000000206064422084F8410000974B4600224B
:105810002021200000F0E0F882465046C0B2002867
:105820002FD1306821688862706821684862B0684A
:105830002168C8622068016831F440013069014381
:1058400051F4800120680160F068A8625FF0006296
:105850002900200000F0E9F800974B4601220821BA
:10586000200000F0B9F882465046C0B2002808D1A6
:1058700008202168C860012084F8410001E05FF041
:10588000020A002084F840005046C0B2BDE8F68706
:105890002DE9F84304000D0016005FF00108FEF743
:1058A000AFFB0700A8690028E8690028286A0028DB
:1058B00094F84000012801D102203DE0012084F845
:1058C000400094F8410001282FD10020606482201C
:1058D00084F84100A06C00903B00002220212000B1
:1058E00000F07AF881464846C0B200281FD12068EF
:1058F000016831F008017068014320680160706838
:1059000008280BD130682168086310202168C8601E
:105910002068006850F48010216808605FF04062E1
:105920002900200000F081F801E05FF0020900206A
:1059300084F840004846C0B2BDE8F2837CB504005C
:105940000025FEF75DFB060094F8410080073ED578
:10595000002084F8400020680068400711D52068C6
:10596000006830F0040021680860E06BFFF77DF804
:1059700005002800C0B2002803D0606C50F004007D
:1059800060642068006850F0020021680860A06C24
:105990000090330001220221200000F01DF80500D4
:1059A0002800C0B200280BD102202168C860A06C7A
:1059B0000090330000222021200000F00DF80500A7
:1059C0002800C0B2002802D1012084F8410028003C
:1059D000C0B276BD816470472DE9F04105000E002C
:1059E00090461F00069C28688068304201D0012044
:1059F00000E000204146C0B2C9B2884212D014F182
:105A0000010FF0D0002C04D0FEF7FAFAC01B84423C
:105A1000E9D2042085F84100686C50F00100686408
:105A2000012000E00020BDE8F08110B44B6A002B9B
:105A300006D0B2F1406F03D08B6A5B1E046823610D
:105A40008B69002B79D00B6A002B3ED08B680468E1
:105A5000E361CB69002B20D0CC6A0B6B1C434B6BF2
:105A60001C434B6A1C434B6954EA83440B691C4337
:105A70000B6A1C43CB681C43CB691C438B691C43DA
:105A80000B681C43144303685C61B2F1406F00F083
:105A9000C6804B680468A361C1E0CC6A0B6B1C43F1
:105AA0004B6B1C434B6A1C434B6954EA83440B69A0
:105AB0001C430B6A1C43CB691C438B691C430B685A
:105AC0001C43144303685C61A9E0CB69002B1ED022
:105AD000CC6A0B6B1C434B6B1C434B6A1C434B69DE
