:020000040800F2
:1000000000000220310E0008AD160008AF160008EF
:10001000B1160008B3160008B5160008000000006D
:10002000000000000000000000000000810E000839
:10003000B716000800000000810E0008B91600087D
:10004000810E0008810E0008810E0008810E000854
:10005000810E0008810E0008810E0008810E000844
:10006000810E0008810E0008810E0008810E000834
:10007000810E0008810E0008810E0008810E000824
:10008000810E0008810E0008810E0008810E000814
:10009000810E0008810E0008810E0008810E000804
:1000A000810E0008810E0008810E0008810E0008F4
:1000B000810E0008810E0008810E0008810E0008E4
:1000C000810E0008810E0008810E0008810E0008D4
:1000D000810E0008810E0008810E0008810E0008C4
:1000E000810E0008810E0008810E0008810E0008B4
:1000F000810E0008810E0008810E0008810E0008A4
:10010000810E0008810E0008810E0008810E000893
:10011000810E0008810E0008810E0008810E000883
:10012000810E0008810E0008810E0008810E000873
:10013000810E0008810E0008810E0008810E000863
:10014000810E0008810E0008810E0008C11600080B
:10015000810E0008810E0008810E0008810E000843
:10016000810E0008810E0008810E0008810E000833
:10017000810E0008810E0008810E0008810E000823
:10018000810E0008810E0008810E0008810E000813
:10019000810E0008810E0008810E0008810E000803
:1001A000810E0008810E0008810E0008810E0008F3
:1001B000810E0008810E0008810E0008810E0008E3
:0801C000810E0008810E000809
:1001C80010B5054C237833B9044B13B10448AFF389
:1001D80000800123237010BDC0070020000000002C
:1001E800BC99000808B5034B1BB103490348AFF39A
:1001F800008008BD00000000C4070020BC9900086A
:1002080053B94AB9002908BF00281CBF4FF0FF3175
:100218004FF0FF3000F070B9ADF1080C6DE904CE75
:1002280000F006F8DDF804E0DDE9022304B07047C9
:100238002DE9F047089E0D4604460F46002B4AD18B
:100248008A42944665D9B2FA82F343B102FA03FCB2
:10025800C3F120029F4020FA02F217439C404FEA64
:100268001C4E1FFA8CF5B7FBFEF1220C0EFB117722
:1002780042EA074201FB05F090420AD91CEB020250
:1002880001F1FF3780F01C81904240F21981023958
:100298006244121AA4B2B2FBFEF00EFB102244EA2A
:1002A800024400FB05F5A5420AD91CEB040400F141
:1002B800FF3280F00781A54240F20481644402388D
:1002C80040EA0140641B00211EB1DC400023C6E95E
:1002D8000043BDE8F0878B4208D9002E00F0ED807E
:1002E8000021C6E900050846BDE8F087B3FA83F1A6
:1002F800002949D1AB4202D3824200F2F880841A25
:1003080065EB030201201746002EE2D0C6E900473C
:10031800DFE702B9FFDEB2FA82F3002B40F09080EB
:100328008A1A4FEA1C471FFA8CFE0121B2FBF7F527
:1003380007FB1520220C42EA00420EFB05F0904212
:1003480008D91CEB020205F1FF3802D2904200F2F4
:10035800CB804546121AA4B2B2FBF7F007FB102275
:1003680044EA02440EFB00FEA64508D91CEB04042F
:1003780000F1FF3202D2A64500F2BB801046A4EB82
:100388000E0440EA05409FE7C1F120078B4022FA9E
:1003980007FC4CEA030C05FA01F420FA07F3FD40C8
:1003A8004FEA1C492343B5FBF9F81FFA8CFE09FBF9
:1003B80018551C0C44EA054408FB0EF5A54202FA40
:1003C80001F200FA01F00BD91CEB040408F1FF3A22
:1003D80080F08880A54240F28580A8F10208644434
:1003E800641B9DB2B4FBF9F309FB134445EA0444CA
:1003F80003FB0EFEA64508D91CEB040403F1FF35E8
:100408006CD2A6456AD9023B644443EA0843A3FB7D
:100418000295A4EB0E04AC42C846AE4656D353D060
:1004280056B1B0EB080264EB0E0404FA07F7CA40B1
:10043800CC401743C6E9007418460021BDE8F08790
:10044800C3F1200102FA03FC20FA01F225FA01F1B6
:100458009D402A434FEA1C471FFA8CFEB1FBF7F078
:1004680007FB1015110C41EA054100FB0EF58D4202
:1004780004FA03F408D91CEB010100F1FF382FD26C
:100488008D422DD902386144491B92B2B1FBF7F570
:1004980007FB151142EA014205FB0EF1914208D90A
:1004A8001CEB020205F1FF3816D2914214D9023D25
:1004B8006244521A45EA004138E73146304608E7B7
:1004C8003946E6E61046FBE64845A9D2B9EB0208EC
:1004D80065EB0C0E013BA3E74546EAE72B4694E79C
:1004E8004046D1E7D0467BE7023D624432E7084602
:1004F8000AE76444023842E7704700BF10B588B085
:100508000446684601F06CFF0794AA23019301F0A2
:1005180051FE08B108B010BD01F06AFE0028F9D1FB
:10052800684601F0C5FE01F0B5FE01F075FE002831
:10053800F0D101F053FEEDE710B5124C124B2360D9
:1005480006F0F0FD6060204605F0E4FF0F4C104B0C
:10055800236007F0FDFD6060204605F0DBFF0D4CD1
:100568000D4B236007F07CFA6060204605F0D2FF4F
:1005780005F0B6FF094806F0DFFD094806F0DCFD86
:1005880010BD00BFE007002000000020F007002099
:1005980028000020E8070020140000203C0000206C
:1005A8006800002008B5044BD3F8D83203B908BD59
:1005B800014808F05FF8FAE79419002070B505467D
:1005C8000E46154B0022C3F88420BFF34F8FD3F893
:1005D8008030C3F3C904C3F34E334FEA431E43F6D6
:1005E800E0710D480EEA010C23464CEA8372C0F80C
:1005F8007422013BB3F1FF3FF7D1AEF1200E1EF19B
:10060800200FEFD1BFF34F8FBFF36F8FB20829468A
:10061800024801F0E1FC70BD00ED00E01418002074
:1006280008B50A4B1B6823B1084B1B68012B05D082
:1006380008BD05F087FF054B1860F5E705F0A6FF34
:100648000028F5D0014B00221A60F1E7F8070020D6
:1006580010B582B04FF010430193BFF34F8FBFF333
:100668006F8F224B5A6922F400325A610022C3F874
:100678005022BFF34F8FBFF36F8FC3F88420BFF3AF
:100688004F8F5A6922F480325A61BFF34F8FD3F8E3
:100698008030C3F3C904C3F34E334FEA431C43F617
:1006A800E07E12480CEA0E01234641EA8372C0F844
:1006B8007422013BB3F1FF3FF7D1ACF1200C1CF1E0
:1006C800200FEFD1BFF34F8FBFF36F8F4FF0E023B1
:1006D80000221A61FFF766FF019B5B68019A1268A6
:1006E80082F30888984702B010BD00BF00ED00E013
:1006F800F0B589B04FF010431C6803F5FF1303F5FC
:100708008053D3F8D85FD3F8E87FD3F8F86F6846FA
:1007180001F066FEBDF81C300E4A1380AA2B0FD0DC
:1007280004F02C54B4F1005F07D10B4B1B7823B9AC
:100738003D403540B5F1FF3F09D0002009B0F0BD7C
:100748004020FFF7DBFE044B01221A70F5E7FFF7A4
:100758007FFFF2E7DC070020DE070020014B024A9A
:100768001A607047FC0700209419002030B583B048
:1007780000238DF80730094B1B6853B1084C01253D
:1007880029460DF1070001F05FF8013C08B1002C83
:10079800F6D19DF8070003B030BD00BFFC0700206C
:1007A80080C3C90110B5FFF7E1FF0446FFF7DEFF7C
:1007B80084EA0003DBB2FF2B0CBF2046EC2010BDFF
:1007C8000A4B1B6873B170B505460E46084C314696
:1007D800284601F039F8013C034608B1002CF6D14F
:1007E800184670BD03231846704700BFFC07002059
:1007F800C0C62D0010B582B08DF80700074B1B68E6
:1008080053B1D3F8BC4201210DF1070000F08CFF71
:10081800D4F81432002BFBD102B010BDFC07002025
:1008280008B5084B1B6853B1FFF7A0FF7F2801D01C
:10083800002005E07920FFF7DDFF012000E000201F
:1008480008BD00BFFC07002008B500F02CF8AA3846
:1008580018BF012008BD000008B5044B1B681BB178
:100868009847024B00221A6008BD00BF000800200C
:100878000078704770470000BFF34F8F0549CA687A
:1008880002F4E062044B1343CB60BFF34F8F00BF09
:10089800FDE700BF00ED00E00400FA057047002006
:1008A80070470020704700B589B0684601F098FD90
:1008B800039809B05DF804FB00787047BFF34F8FC9
:1008C8000549CA6802F4E062044B1343CB60BFF3E6
:1008D8004F8F00BFFDE700BF00ED00E00400FA0500
:1008E80008B505F0E7FD05F0A3FD002008BD08B533
:1008F80005F0E0FD05F09CFD002008BD2DE9F04164
:100908008CB007460C46164605F0D4FD002300932C
:100918000193029307F1E047804A5368013353601B
:1009280003A805F069FD05F0C5FD059AB7FBF2F5CA
:1009380002FB1575002D40F08280B7FBF2F702FB31
:1009480007F7009796425DD9B6FBF2F3029302FBD4
:100958001366009BB3FBF2F30193029B5BB3704FEA
:100968004FF00008059A019902FB01F1384605F09D
:100978008DFA059848B1631E694A411E214413F84F
:1009880001CF02F801CB9942F9D1019B414603FB03
:1009980000F005F03BFB059A019902FB01F138468E
:1009A80005F0BCFA019B01330193059B1C440135FA
:1009B800029B9D42D6D3059A019902FB01F1584842
:1009C80005F064FA4EB1631E554A701E204413F8B0
:1009D800011F02F8011B8342F9D1019B00210598F0
:1009E80003FB00F005F012FB059A019902FB01F1E7
:1009F8004B4805F093FA05F01BFD05F019FD0CB006
:100A0800BDE8F081009BB3FBF2F3019300994448E1
:100A180005F03CFA4EB1631E414A013EA01913F895
:100A2800011F02F8011B8342F9D10098002105F04B
:100A3800EDFA0099059A3A4805F070FADBE7B7FB3A
:100A4800F2F702FB07F7009796426DD8009BB3FBBD
:100A5800F2F30193019902FB01F1314805F016FA0E
:100A68007719059887423ED9461B09D0631E2D4A3F
:100A78002A441E4413F8011F02F8011FB342F9D19A
:100A8800019B002103FB00F005F0C0FA059A0199CB
:100A9800234E02FB01F1304605F040FA019B013379
:100AA8000193059A019902FB01F1304605F0EEF930
:100AB8000598431B391A08D023443246194413F8C1
:100AC800014B02F8014B8B42F9D1019B002103FB3A
:100AD80000F005F09BFA059A019902FB01F1104814
:100AE80005F01CFA87E756B1631E0E4A2A44013EF8
:100AF800344413F8011F02F8011F9C42F9D1019BED
:100B0800002103FB00F005F081FA059A019902FB28
:100B180001F1034805F002FA6DE700BF0408002060
:100B28000C0800200B080020009BB3FBF2F3019394
:100B3800019902FB01F13E4805F0A8F90598471B09
:100B480009D0631E3B4A2A441F4413F8011F02F8C8
:100B5800011FBB42F9D1019B002103FB00F005F006
:100B680055FA059A019902FB01F1314805F0D6F9C9
:100B7800059B5A1B144400990A440092F61A3544FE
:100B8800B5FBF3F2029203FB1255019B013301936B
:100B9800029B5BB30026264FB046059A019902FBDB
:100BA80001F1384605F072F9059848B1631E204AEC
:100BB800411E214413F801CF02F801CB8B42F9D131
:100BC800019B414603FB00F005F020FA059A0199C4
:100BD80002FB01F1384605F0A1F9019B01330193AD
:100BE800059B1C440136029B9E42D6D3059A019967
:100BF80002FB01F10E4805F049F94DB1631E0C4A9C
:100C0800013D2C4413F8011F02F8011BA342F9D13E
:100C1800019B0021059803FB00F005F0F7F9059A00
:100C2800019902FB01F1024805F078F9E3E600BFFB
:100C38000C0800200B080020014B024A1A6070477C
:100C48000C1800208418002070B582B000238DF89D
:100C580007300B4B1B6873B10024094E4FF4FA653B
:100C68002B4601220DF10701306804F064F90134C4
:100C780008B1012CF4D99DF8070002B070BD00BF7F
:100C88000C18002010B5FFF7DFFF0446FFF7DCFF64
:100C980084EA0003DBB2FF2B0CBF2046EC2010BD1A
:100CA8000E4B1B68BBB12DE9F041064600248DB2FE
:100CB800DFF828804FF4FA673B462A463146D8F8D1
:100CC800000004F038F90134034608B1012CF3D9C7
:100CD8001846BDE8F0810123184670470C1800201B
:100CE80000B583B08DF80700064B186830B14FF493
:100CF8007A7301220DF1070104F0B8F803B05DF82A
:100D080004FB00BF0C18002008B5084B1B6853B142
:100D1800FFF79AFF7F2801D0002005E07920FFF730
:100D2800DFFF012000E0002008BD00BF0C180020F4
:100D3800014B024A1A607047101800200C19002055
:100D480070B582B000238DF807300B4B1B6873B168
:100D58000024094E4FF4FA652B4601220DF10701D4
:100D6800306804F0E8F8013408B1012CF4D99DF892
:100D7800070002B070BD00BF1018002010B5FFF7C3
:100D8800DFFF0446FFF7DCFF84EA0003DBB2FF2B3A
:100D98000CBF2046EC2010BD0E4B1B68BBB12DE9E3
:100DA800F041064600248DB2DFF828804FF4FA6738
:100DB8003B462A463146D8F8000004F0BCF8013416
:100DC800034608B1012CF3D91846BDE8F081012388
:100DD800184670471018002000B583B08DF807003A
:100DE800064B186830B14FF47A7301220DF10701F0
:100DF80004F03CF803B05DF804FB00BF10180020B5
:100E080008B5084B1B6853B1FFF79AFF7F2801D03C
:100E1800002005E07920FFF7DFFF012000E0002037
:100E280008BD00BF10180020DFF834D00D480E4967
:100E38000E4A002302E0D458C4500433C4188C422C
:100E4800F9D30B4A0B4C002301E013600432A24291
:100E5800FBD300F03BFF08F0F5FB00F071F870479A
:100E68000000022000000020C0070020489A000867
:100E7800C0070020A0460020FEE7000000B595B09E
:100E88003022002108A808F0BFFB00230393049335
:100E9800059306930793284B1A6C42F080521A6404
:100EA8001B6C03F080530193019B244B1A6842F496
:100EB80040421A601B6803F440430293029B0323D9
:100EC80008934FF48033099301230B9310230C9359
:100ED80002230E934FF480020F92192210924FF4BE
:100EE800D872119212930923139308A802F0C0FE36
:100EF800D8B902F0F9FAD0B90F2303930223049367
:100F0800002305934FF4A05306934FF4805307939F
:100F1800072103A803F068F958B9002211461046C2
:100F280003F0C2F815B05DF804FB72B6FEE772B6BE
:100F3800FEE772B6FEE700BF0038024000700040CE
:100F48002DE9804891B0BFF34F8FBFF36F8FB24B3D
:100F58000021C3F85012BFF34F8FBFF36F8F5A6948
:100F680042F400325A61BFF34F8FBFF36F8FC3F85B
:100F78008410BFF34F8FD3F88030C3F3C906C3F38F
:100F88004E335C0143F6E075A34804EA0501334695
:100F980041EA8372C0F86022013BB3F1FF3FF7D109
:100FA800203C14F1200FF0D1BFF34F8F9A4A5369B8
:100FB80043F480335361BFF34F8FBFF36F8F00F05B
:100FC800B3FEFFF75BFF00240B940C940D940E9472
:100FD8000F94924B1A6B42F010021A631A6B02F0CC
:100FE80010020092009A1A6B42F002021A631A6BFE
:100FF80002F002020192019A1A6B42F001021A638E
:101008001A6B02F001020292029A1A6B42F0400235
:101018001A631A6B02F040020392039A1A6B42F4A5
:1010280000721A631A6B02F400720492049A1A6B23
:1010380042F008021A631A6B02F008020592059A38
:101048001A6B42F480721A631A6B02F48072069269
:10105800069A1A6B42F480621A631A6B02F4806271
:101068000792079A1A6B42F020021A631A6B02F071
:1010780020020892089A1A6B42F080021A631A6BCF
:1010880002F080020992099A1A6B42F004021A636C
:101098001B6B03F004030A930A9BDFF898A1012253
:1010A8004FF48051504601F0AFFB22464FF40451F3
:1010B8005B4801F0A9FB01224FF48061594801F017
:1010C800A3FB10230B9302250C950D940E950E236C
:1010D8000F93DFF864810BA9404601F0ABF94FF696
:1010E80083730B930C950D9403260E960C270F977C
:1010F8000BA9404601F09EF94FF4C0730B931223DD
:101108000C934FF00109CDF834900E9504230F93FA
:10111800A8F540680BA9404601F08CF920230B93F1
:101128000C950D940E964FF0050BCDF83CB00BA91D
:10113800404601F07FF948F260030B930C950D943B
:101148000E96CDF83CB0DFF8F4B00BA9584601F084
:1011580071F94FF400730B930C940D940BA940464E
:1011680001F068F948F233130B930C950D940E9621
:101178000F970BA92C4801F05DF94EF6FF730B93FE
:101188000C950D940E950E230F930BA9504601F064
:1011980051F94FF480530B93CDF830900D940E9481
:1011A8000BA9504601F046F94CF203730B930C95CA
:1011B8000D940E960F970BA91C4801F03BF94FF4BC
:1011C80004530B93CDF830900D940E940BA914484A
:1011D80001F030F940F2FF630B930C950D940E96D5
:1011E8000F970BA90E4801F025F9FF230B930C95D7
:1011F8000D940E950E230F930BA90D4801F01AF9C3
:101208004FF4806ACDF82CA00C940D940BA90648D5
:1012180001F010F914E000BF00ED00E000380240D2
:10122800002002400014024000180240000C024056
:101238000028024000240240001002400000024042
:101248004FF63F030B930C950D940E960F970BA931
:10125800664801F0EFF84FF62C730B930C950D943C
:101268000E960F97624E0BA9304601F0E3F84FF443
:1012780050430B930C950D940E950E230F930BA9C9
:101288005C4801F0D7F84FF480730B930C950D94DC
:101298000E940F940BA9584601F0CCF810230B9329
:1012A80012230C93CDF834900E9504230F930BA9B9
:1012B800304601F0BFF84FF440530B930C950D9452
:1012C8000E9509260F960BA9404601F0B3F8CDF804
:1012D8002CA0CDF830900D940E940BA9434801F042
:1012E800A9F810230B930C950D940E950E230F93CC
:1012F8000BA9584601F09EF84FF400630B93122394
:101308000C93CDF834900E9504230F930BA9404607
:1013180001F090F84FF400430B930C950D940E9444
:101328000F960BA9404601F085F83348334B03600C
:101338004FF4E13343608460C460046147618461B1
:10134800C4610462446203F0A0FE002843D12C4823
:101358002C4B03604FF4E133436000218160C1608E
:1013680001610C2343618161C161016241620B46E5
:101378000A4603F0BBFE00282FD100F0A5F9224849
:10138800224B03600023037143714361836103238C
:10139800036200F0E1FD10BB1D481E4B03600123F2
:1013A800436083601023C360172303614FF4807385
:1013B800436100238361C361036202F0DBF980B9F2
:1013C800134804F02BFF05F033F8FFF791F950B1FB
:1013D800FFF726F9FCE772B6FEE772B6FEE772B6CB
:1013E800FEE772B6FEE7FFF7A7F8F1E70014024040
:1013F800001C0240002002408418002000440040E5
:101408000C1900200014014014180020003002407C
:1014180038180020001000A072B6FEE700B583B0AF
:101428000D4B1A6C42F080521A641A6C02F080520A
:101438000092009A5A6C42F480425A645B6C03F43E
:1014480080430193019B00220F216FF0010000F0FF
:10145800AFFC03B05DF804FB003802400268094B9A
:101468009A4200D0704782B003F500631A6B42F4C9
:1014780080521A631B6B03F480530193019B02B0E3
:10148800704700BF003002402DE9F0478AB00023C2
:10149800059306930793089309930268354B9A427C
:1014A80002D00AB0BDE8F087334B9A6B42F00202D3
:1014B8009A639A6B02F002020192019A1A6B42F047
:1014C80002021A631A6B02F002020292029A1A6B63
:1014D80042F020021A631A6B02F020020392039A68
:1014E8001A6B42F008021A631B6B03F0080304939B
:1014F800049B4023059302250695032408944FF086
:101508000A0ACDF824A0DFF8788005A9404600F043
:1015180091FF8023059306950026079608940927CE
:101528000997DFF8609005A9484600F083FF4FF45B
:1015380080730593069507960894CDF824A005A90D
:10154800484600F077FF042305930695079608940C
:10155800099705A9404600F06DFF4FF440530593E5
:10156800069507960894099705A9044800F062FFB4
:1015780097E700BF001000A000380240000C0240AE
:101588000004024000140240F0B5ADB0044600214A
:101598002791289129912A912B91842206A808F055
:1015A80033F82368394A934204D0394A93422CD0FD
:1015B8002DB0F0BD8023069306A802F0F3FE08BB09
:1015C800344B1A6C42F400321A641A6C02F400327A
:1015D8000192019A1A6B42F008021A631B6B03F01E
:1015E80008030293029B782327930223289300235E
:1015F800299303232A9307232B9327A9264800F02E
:1016080019FFD5E7FFF708FFDAE74FF40063069301
:1016180006A802F0C7FE002835D11E4B5A6C42F0CE
:1016280020025A645A6C02F020020392039A1A6B41
:1016380042F040021A631A6B02F040020492049AC4
:101648001A6B42F004021A631B6B03F00403059340
:10165800059B4FF490532793022728970026299635
:1016680003252A9508242B9427A90C4800F0E2FEAC
:1016780040232793289729962A952B9427A9084829
:1016880000F0D8FE94E7FFF7C7FEC6E70044004025
:101698000014014000380240000C024000180240CB
:1016A80000080240FEE7FEE7FEE7FEE7FEE77047B8
:1016B80008B500F045FB08BD08B5024801F00CFB71
:1016C80008BD00BF742E002008B500220F4910483D
:1016D80006F0B9FF70B90F490D4806F0E4FF60B98C
:1016E8000D490B4806F051FF50B9094806F0F5FFBF
:1016F80048B908BDFFF790FEEDE7FFF78DFEEFE76D
:10170800FFF78AFEF1E7FFF787FEF2E7A80000205F
:101718009419002000020020940000200020704747
:101728000020704700207047094BD3F8BC32D3F82B
:1017380014320BB10120704710B5054C0A4601461A
:10174800204606F02DFF204606F044FF10BD00BFDE
:101758009419002038B50546102007F0FFFC044610
:101768006B1E036043608560A80007F0F7FCE0602B
:10177800204638BD10B5094C00220949204606F01C
:101788000FFF0849204606F019FF4FF40070FFF7D5
:10179800E1FF054B1860002010BD00BF9419002020
:1017A80070240020701C0020702C00200368013376
:1017B8008268B3FBF2FC02FB1C330360426893426D
:1017C80003D0C26842F823107047013B036070479A
:1017D8002DE9F04106460F46104C0146204606F01A
:1017E800EDFE204606F013FFD4F8BC329BB10C4B3B
:1017F8001B6883B13B6873B1751EDFF824802C46E3
:1018080015F8011FD8F80000FFF7D0FF0234A41B19
:101818003B68A342F3D80020BDE8F081941900206A
:10182800702C00204368026893420AD00133826812
:10183800B3FBF2F102FB11334360C26852F8230094
:1018480070474FF0FF3070470D4B1B688BB191B15B
:1018580070B5441E0844451E094E3068FFF7E2FF84
:10186800B0F1FF3F09D004F8010FAC42F5D10020D8
:1018780004E00320704700207047032070BD00BFBC
:10188800702C002012230B8000487047C4000020F1
:1018980004230B8000487047D8000020B2B14B1CCD
:1018A80002F1FF3C5FFA8CFC033101EB4C014FF075
:1018B800000C020FB0F1204F34BF3032373203F83A
:1018C800012C000103F802CB8B42F2D170470000D3
:1018D80038B51A230B800C4BD3F82004D3F82834DE
:1018E800C01801D1094838BD074BD3F82454074C18
:1018F8000822A11CFFF7D2FF042204F11201284696
:10190800FFF7CCFFEEE700BF00F0F01FDC0000207F
:1019180008B50A460249034807F0B8FB004808BD65
:10192800742C0020D499000810B50A46034C2146AF
:10193800034807F0ABFB204610BD00BF742C002005
:10194800EC99000808B50A460249034807F09EFBCF
:10195800004808BD742C0020009A000808B50A4603
:101968000249034807F092FB004808BD742C002088
:101978000C9A000870B5AAB004460021259126915A
:10198800279128912991842204A807F03DFE236815
:10199800B3F1A04F01D02AB070BD4FF400130493E7
:1019A80004A802F0FFFC00283DD1204C236B43F033
:1019B80001032363236B03F001030193019B4FF49D
:1019C800E053259302232693002527950323289384
:1019D8000A232993164E25A9304600F02BFD4FF413
:1019E800007325932695279525A9304600F022FDFA
:1019F800636B43F080036363636B03F080030293BC
:101A0800029B636C43F480436364636C03F4804318
:101A18000393039B2A462946432000F0C9F9432033
:101A280000F0FAF9B7E7FFF7F7FCBEE70038024025
:101A38000000024008B50368B3F1A04F00D008BD0C
:101A4800064A536B23F0800353634FF4F051044864
:101A580000F022FE432000F0EDF9F0E700380240E4
:101A68000000024008B500F2C441D0F8040506F0B1
:101A78004AFE08BD08B501EBC10300EB8303D3F8A8
:101A88008C22D0F8040506F06AFE08BD08B501EB03
:101A9800C10300EB8303DA6CD0F8040506F0A3FE5B
:101AA80008BD08B5D0F8040506F04DFF08BD10B50F
:101AB8000446C3683BB1022B01D1012104E0FFF7C2
:101AC800ABFC012100E00021D4F8040506F021FF59
:101AD800D4F8040506F0ECFE10BD000010B504466D
:101AE800D0F8040506F018FF2268D2F8003E43F04B
:101AF8000103C2F8003E236A23B1034A136943F085
:101B08000603136110BD00BF00ED00E008B5D0F872
:101B1800040506F00BFF08BD08B5D0F8040506F06B
:101B28003AFF08BD08B5D0F8040506F01DFF08BD4A
:101B380008B5D0F8040506F045FF08BD08B5D0F88B
:101B4800040506F041FF08BD02780AB1002070477D
:101B580010B503461548C0F80435C3F8C8024FF05D
:101B6800A0430360062343600222C260002303618E
:101B78008261C361036243620122C262036300F0AF
:101B880049FE80B9094C8021204601F092FC402290
:101B98000021204601F068FC80220121204601F046
:101BA80063FC002010BDFFF737FCEBE7742E002024
:101BB800D0F8C83211F0800F01F07F0101EBC101AC
:101BC80003EB810314BF93F83E0093F87E0270473D
:101BD80008B5D0F8C80200F0BBFF08BD20B1022844
:101BE80014BF032001207047704708B5D0F8C80219
:101BF80000F0AEFEFFF7F2FF08BD08B5D0F8C80246
:101C080000F0BDFEFFF7EAFF08BD08B5D0F8C8022E
:101C180000F0CAFEFFF7E2FF08BD08B594461A4671
:101C28006346D0F8C80200F0ECFEFFF7D7FF08BD06
:101C380008B5D0F8C80200F026FFFFF7CFFF08BDAF
:101C480008B5D0F8C80200F0BAFFFFF7C7FF08BD13
:101C580008B5D0F8C80200F0F4FFFFF7BFFF08BDD1
:101C680008B5D0F8C80200F0B8FEFFF7B7FF08BD06
:101C780008B5D0F8C80200F074FFFFF7AFFF08BD41
:101C880008B5D0F8C80200F035FFFFF7A7FF08BD78
:101C980008B503460B4A126842B10A4A1068034461
:101CA8006A46934206D8074A136008BD054A0649A2
:101CB8001160F2E707F0C0FC0C2303604FF0FF301F
:101CC800F3E700BF7C330020A0460020034AD2F887
:101CD800883043F47003C2F88830704700ED00E0A4
:101CE80010B504460D4B1A784FF47A73B3FBF2F330
:101CF8000B4A1068B0FBF3F000F0AEF80F2C00D8D8
:101D080008B1012010BD002221464FF0FF3000F03D
:101D18004FF8044B1C600020F4E700BFFC000020D3
:101D2800F80000200001002008B5032000F02EF87C
:101D38000F20FFF7D5FFFFF771FB002008BD00005B
:101D4800034A1168034B1B780B441360704700BFAC
:101D580080330020FC000020014B1868704700BF4A
:101D68008033002038B50446FFF7F6FF0546B4F186
:101D7800FF3F02D0044B1B781C44FFF7EDFF401BCC
:101D8800A042FAD338BD00BFFC000020064AD36841
:101D9800000200F4E06023F4E0631B041B0C18430A
:101DA800024B0343D360704700ED00E00000FA05E2
:101DB80000B5164BDB68C3F30223C3F1070CBCF173
:101DC800040F28BF4FF0040C03F1040EBEF1060FF8
:101DD8008CBF033B00234FF0FF3E0EFA0CFC21EAB8
:101DE8000C0199400EFA03FE22EA0E021143002864
:101DF80005DB0901C9B2064B19545DF804FB00F074
:101E08000F000901C9B2034B1954F6E700ED00E0D1
:101E180000E400E014ED00E0002807DB410900F0D1
:101E28001F0001238340024A42F82130704700BF57
:101E380000E100E000280CDB430900F01F0001224C
:101E480082402033034941F82320BFF34F8FBFF36B
:101E58006F8F704700E100E00138B0F1807F0BD24E
:101E68004FF0E0235861054AF02182F82310002042
:101E7800986107221A6170470120704700ED00E061
:101E880030B5032A2DD995088C464FF0000E9CF8E2
:101E980000409CF801301B0443EA04639CF80340AB
:101EA80023439CF8024043EA0423046823600EF1AC
:101EB800010E0CF1040CAE45E9D3032A98BF0125A5
:101EC80012F0030213D0012A0DD0022A12D111F800
:101ED800252001EB85056B7843EA0223026813800D
:101EE80005E00025ECE7036811F825201A7003685F
:101EF800186830BD032AFAD111F8252001EB8501B5
:101F08004B7843EA02230268138003688A781A70C0
:101F1800EDE770B5012A1CD94FEA520E00238D1C3B
:101F280031F823C035F8234044EA0C44066834608D
:101F380001337345F4D3012A98BF4FF0010E12F014
:101F4800010F03D0036831F82E201A80036818683F
:101F580070BD4FF0000EF2E7002838D010B50446E7
:101F6800437F1BB30223637723791BBB2368194A7A
:101F78005A612268936823F018039360637913BB4E
:101F880023684FF0FF321A612268936823F06003D8
:101F980061690B4393602268936823F08003A16909
:101FA8000B43936001236377002010BD0377FFF78D
:101FB80055FAD7E7E268A168204600F036F800280D
:101FC800DCD00120F1E7236822691A61DCE70120EF
:101FD800704700BFB71DC10410B5044602234377FC
:101FE8000068836843F001038360236A022B18D0DA
:101FF800032B05D0012B10D000200123637710BDDF
:1020080042B1043901EB8202236851F8040F1860C9
:102018009142F9D123681868EFE72046FFF730FFAF
:10202800EBE72046FFF775FFE7E74FF01E0C0CF0D3
:102038001F0321FA03F313F0010F0BD10CF1FF3C3E
:10204800BCF1FF3FF3D1102A30D0182A30D0AAB102
:1020580001207047182A25D8DFE802F0102424242C
:10206800242424241F242424242424241A24242437
:10207800242424240D00BCF1060F15D803685961E7
:1020880001688B6823F0180313438B6000207047A6
:10209800BCF1070FF2D901207047BCF10F0FEDD941
:1020A80001207047012070470120704701207047C8
:1020B8000120704770B50446866DFFF74DFE94F811
:1020C8003530DBB2022B06D0802363650120002364
:1020D80084F8343070BD05462268136823F016036F
:1020E80013602268536923F080035361236CCBB1DA
:1020F8002268136823F0080313602268136823F02A
:102108000103136023681B6813F0010F0ED0FFF75B
:1021180023FE431B052BF5D920236365032084F890
:102128003500D4E7A36C002BE2D1E6E7E26D3F234C
:102138009340B360012384F835300020C7E70000DE
:102148001A4BDB6813F0020F04D0194A936943F065
:1021580020039361154BDB6813F0100F04D0144A69
:10216800936943F010039361104BDB6813F0200F61
:1021780004D00F4A936943F0080393610B4BDB6863
:1021880013F0400F04D00A4A936943F004039361A3
:10219800064BDB6813F0800F04D0054A936943F0BF
:1021A80002039361014BF222DA607047003C02405F
:1021B80084330020074B1B69002B01DB002070478C
:1021C800044B054A5A6002F188325A601869C00FF8
:1021D800704700BF003C024023016745034A13696A
:1021E80043F0004313610020704700BF003C0240E9
:1021F800074B5B6913F0010F07D0054B054A9A603E
:1022080002F144329A60002070470120704700BFF5
:10221800003C02403B2A1908034A536943F0010372
:1022280053610020704700BF003C024070B504466F
:10223800164B00229A61FFF78FFD0646144DEB6896
:1022480013F4803F0AD0B4F1FF3FF8D0CCB1FFF7C8
:1022580083FD801BA042F2D903200DE00C4BDB6804
:1022680013F0F20F09D10A4BDB6813F0010F0AD003
:10227800074B0122DA60002070BDFFF761FF0120E3
:10228800FAE70320F8E70020F6E700BF84330020D0
:10229800003C024008B5054A536943F00203536104
:1022A8004CF25030FFF7C2FF08BD00BF003C0240AF
:1022B80038B5474B1B7D012B00F088800446444B02
:1022C80001221A75036813F0010F1BD0436893426B
:1022D8000BD085684CF25030FFF7A8FF034690B941
:1022E8003C4A51690D4355610DE085684CF2503008
:1022F800FFF79CFF034630B936494A6922EA0502CE
:102308004A6100E00123226812F0020F14D122680A
:1023180012F0040F1CD1226812F0080F2FD1226886
:1023280012F0100F34D1226812F0200F3FD1284A42
:1023380000211175184638BDE5684CF25030FFF79A
:1023480075FF03460028E2D1EDB2224A5575DEE753
:1023580065694CF25030FFF769FF03460028DAD16F
:102368001C49486925F07F5525F47F1525F47C55CF
:1023780025F00F05184A024015434D61CBE7154972
:102388004A69237C22F00C0213434B610023C6E701
:10239800A5694CF25030FFF749FF03460028C2D127
:1023A8000C4988690D4A02402A438A61BBE7E469FF
:1023B8004CF25030FFF73AFF03460028B7D10549E1
:1023C8008A6992B242EA04428A61B0E70223B1E71D
:1023D80084330020003C02400FFFFF3F0000FFFF56
:1023E8003F230360124A536903F47F038360537DDC
:1023F800DBB2AA2B04D0537DDBB2CC2B18BF5523FC
:10240800C3600B4B5A6922F07F5222F47F1222F4E8
:102418007C5222F00F0242615A6902F00C020261FA
:102428009A6992B282619B691B0CC361704700BFB5
:10243800003C02402DE9F04F83B000221346904D36
:10244800904F914CDFF848825BE0D0F808A04FF03D
:10245800030909FA02F92AEA090ACE6806FA02F912
:1024680049EA0A09C0F80890D0F8049029EA0C094A
:102478004E68C6F3001C0CFA03FC4CEA090CC0F8C1
:1024880004C051E04FF0000C0CFA0BFC4CEA0A0CAB
:10249800C9F808C0D4F808906FEA0E0C4E6816F414
:1024A800801F0CBF0CEA09094EEA0909C4F8089014
:1024B800D4F80C904E6816F4001F0CBF0CEA0909FA
:1024C8004EEA0909C4F80C90D4F804904E6816F442
:1024D800003F0CBF0CEA09094EEA0909C4F8049048
:1024E800D4F800904E6816F4803F0CBF0CEA090936
:1024F8004EEA0909C4F8009001330232102B00F0AB
:10250800BB804FF0010C0CFA03FCD1F800900CEAE8
:10251800090E3CEA0909EFD14E6806F0030909F1F2
:10252800FF39B9F1010F90D94E6806F0030CBCF1E0
:10253800030F2BD0D0F80C904FF0030C0CFA02FCD0
:1025480029EA0C098E6806FA02FC4CEA090CC0F864
:102558000CC04E6806F0030CBCF1020F16D14FEA0E
:10256800D30900EB8909D9F820A003F0070C4FEA3A
:102578008C0C4FF00F0B0BFA0CFB2AEA0B0A0E69B6
:1025880006FA0CFC4CEA0A0CC9F820C0D0F80090F6
:102598004FF0030C0CFA02FC29EA0C094E6806F00D
:1025A800030C0CFA02FC4CEA090CC0F800C04E6897
:1025B80016F4403FA0D0D5F844C04CF4804CC5F880
:1025C80044C0D5F844C00CF4804CCDF804C0DDF804
:1025D80004C023F0030909F1804909F59C39D9F8A9
:1025E80008A003F0030B4FEA8B0B4FF00F0C0CFA0B
:1025F8000BFC2AEA0C0AB8423FF444AF404523D00A
:10260800224EB04223D006F58066B04222D006F5AD
:102618008066B04221D006F58066B04220D0DFF84F
:1026280074C060451FD00CF5806C60451ED00CF559
:10263800806C60451DD00CF5806C60450CBF4FF078
:10264800090C4FF00A0C1FE74FF0010C1CE74FF084
:10265800020C19E74FF0030C16E74FF0040C13E7D0
:102668004FF0050C10E74FF0060C0DE74FF0070C84
:102678000AE74FF0080C07E703B0BDE8F08F00BF8A
:102688000038024000000240003C014000080240BF
:1026980000040240001802402DE9F04F83B00023E7
:1026A800DFF850A1DFF85091DFF85081DFF850B122
:1026B80029E04FF0000E0EFA04F4644577D005685F
:1026C8005E000324B44025EA04050560DD0800EB3C
:1026D80085052E6A03F0070C4FEA8C0C0F2707FAC2
:1026E8000CF726EA07062E62C56825EA0405C560C8
:1026F800456825EA02024260826822EA0402826092
:102708000133102B71D001229A4002EA010732EA04
:102718000104F5D123F003055544D5F808C003F0AA
:102728000304A4000F26A640019606EA0C0C4845AF
:10273800BFD0584523D02E4EB04223D006F5806630
:10274800B04222D006F58066B04221D006F58066F8
:10275800B04220D006F58066B0421FD0DFF8A4E072
:1027680070451ED00EF5806E70451DD00EF5806E3A
:1027780070450CBF4FF0090E4FF00A0E9BE74FF063
:10278800010E98E74FF0020E95E74FF0030E92E71F
:102798004FF0040E8FE74FF0050E8CE74FF0060E52
:1027A80089E74FF0070E86E74FF0080E83E7D8F861
:1027B800004024EA0704C8F80040D8F8044024EA96
:1027C8000704C8F80440D8F80C4024EA0704C8F8FD
:1027D8000C40D8F8084024EA0704C8F80840AC6858
:1027E800019E24EA0604AC6069E703B0BDE8F08FF7
:1027F800000802400038014000000240003C01404F
:1028080000040240001C02400AB1816170470904BB
:102818008161704770B58AB0002800F0978005463E
:10282800046890F8BD343BB3032385F8BD34E36BEB
:1028380013F4807F01D100232B61286802F076FD14
:102848002C4654F8106BEC460FCCACE80F000FCCBC
:10285800ACE80F0094E803008CE803002B1D0ECBB6
:10286800304602F0ADFC044658B1022385F8BD3469
:10287800012420460AB070BD80F8BC34FFF77AF80E
:10288800D2E70021286802F057FD686898B323460C
:102898004FF0010C002103EBC30205EB820282F822
:1028A8003DC082F83C30A2F8443082F84010916470
:1028B800D16403EBC30205EB820251650133DBB23D
:1028C8008342E8D3002204EBC40305EB830383F8B7
:1028D8007D2283F87C4283F88022C3F88822C3F8DB
:1028E8008C2204EBC40305EB8303C3F89422013460
:1028F800E4B28442E7D32C4654F8106BEC460FCC74
:10290800ACE80F000FCCACE80F0094E803008CE8AB
:1029180003002B1D0ECB304602F096FD044660B92D
:10292800002385F83830012385F8BD346B6A012B04
:1029380008D0286803F0D0F99BE7022385F8BD3456
:10294800012496E7284600F0B9FDF2E7012490E754
:1029580038B590B10446032380F8BD34006803F00D
:102968007EF9054610B10125284638BD2046FFF7F7
:1029780061F8002384F8BD34F6E70125F4E790F800
:10298800BC34012B0ED010B50446012380F8BC34AA
:10299800006802F0C5FC206803F090F9002084F874
:1029A800BC0410BD0220704790F8BC34012B12D033
:1029B80010B50446012380F8BC34006802F0B6FC68
:1029C800206803F089F91021206802F0E7FC002054
:1029D80084F8BC0410BD0220704790F8BC34012B69
:1029E8000DD010B50446012380F8BC3480F83810A7
:1029F800006803F053F9002084F8BC0410BD0220DD
:102A0800704710B504468C4611F0800F26D101F0AE
:102A18000F0000EBC00E04EB8E0E0EF51F71704612
:102A28004FF0000E80F87DE20CF00F0C81F800C02A
:102A3800CA600B714A780AB1A1F808C0022B1DD0F0
:102A480094F8BC34012B1CD0012384F8BC342068D2
:102A580002F0D2FD002084F8BC0410BD01F00F0084
:102A680000EBC00104EB81013C3100EBC00004EB3A
:102A780080004FF0010E80F83DE0D5E700234B7150
:102A8800DEE70220E9E710B504460B4611F0800F97
:102A98001FD101F00F0202EBC20100EB810101F529
:102AA8001F7102EBC20200EB8202002082F87D0255
:102AB80003F00F030B7094F8BC34012B18D00123DA
:102AC80084F8BC34206802F0DFFD002084F8BC04E0
:102AD80010BD01F00F0202EBC20100EB81013C3195
:102AE80002EBC20200EB8202012082F83D00DFE720
:102AF8000220EDE710B501F00F0404EBC40100EB70
:102B0800810101F51F7104EBC40C00EB8C0CCCF8AF
:102B18008C22CCF894320023CCF89C328CF87D328D
:102B28008CF87C420369012B06D064B9DAB20068DC
:102B380002F018FE002010BD04EBC40C00EB8C0C56
:102B4800CCF89022F1E7DAB2006802F001FFF1E771
:102B580001F00F0101EBC10100EB8100D0F89C02EC
:102B6800704710B501F00F0404EBC40100EB8101BC
:102B78003C3104EBC40C00EB8C0CCCF84C20CCF8AA
:102B880054300023CCF85C3001238CF83D308CF8AD
:102B98003C400369012B06D064B9DAB2006802F040
:102BA800E1FD002010BD04EBC40C00EB8C0CCCF84C
:102BB8005020F1E7DAB2006802F0CAFEF1E738B552
:102BC80001F00F054268954237D804460B4611F0CC
:102BD800800F1ED101EBC10100EB810101F51F71CE
:102BE80003EBC30300EB8303002283F87D22012358
:102BF8008B700D7094F8BC34012B20D0012384F81D
:102C0800BC34206802F0CEFF85B1002084F8BC04F3
:102C180038BD05EBC50100EB81013C3105EBC5036F
:102C280000EB8303012283F83D20E0E704F2C4426D
:102C3800217C206803F0A0F8E7E70120E8E70220FC
:102C4800E6E701F00F03426893422FD810B5044617
:102C580011F0800F1DD103EBC30100EB810101F5D9
:102C68001F7103EBC30200EB8202002082F87D0291
:102C780000228A700B7094F8BC34012B18D0012301
:102C880084F8BC34206802F0BCFF002084F8BC043F
:102C980010BD03EBC30100EB81013C3103EBC30220
:102CA80000EB8202012082F83D00E1E70120704735
:102CB8000220EDE708B511F0800F01F00F0101EBDC
:102CC800C10100EB810114BF3C3101F51F7100689F
:102CD80002F0D6FD08BD00002DE9F04F89B004468A
:102CE8000668304603F034F810B109B0BDE8F08F3B
:102CF8008346206802F0FEFF0028F6D006F5006340
:102D08000293D6F80838C3F30D23C4F8FC342068BE
:102D180002F0F0FF10F0020F04D02268536903F0AC
:102D280002035361206802F0E5FF10F0100F13D082
:102D38002268936923F010039361356A05F00F0741
:102D4800C5F34343022B6FD0062B00F08B8022681B
:102D5800936943F010039361206802F0CBFF10F4ED
:102D6800002F40F09180206802F0C4FF10F4802FFB
:102D780040F07281206802F0BDFF0028C0F2428254
:102D8800206802F0B7FF10F4006F0AD0029B9B681E
:102D980013F0010F40F04F822268536903F4006377
:102DA8005361206802F0A6FF10F0006F15D022686A
:102DB800536903F00063536194F8F434002B40F036
:102DC8003E82012184F8F41423685B6DC3F3830306
:102DD800C4F8F834204600F085FB206802F08AFF2A
:102DE80010F4805F40F02F82206802F083FF10F417
:102DF800005F40F07E82206802F07CFF10F0080F30
:102E080040F08F82206802F075FF10F0800F00F00C
:102E18009F82B36923F08003B3616368012B40F29A
:102E28009782274601258AE247F6F0731D428ED025
:102E38004FEA151A07EBC70804EB8808C5F30A120E
:102E4800D8F88C12304602F089FECAF30A0AD8F87C
:102E58008C325344C8F88C32D8F89C325344C8F8A2
:102E68009C3274E7082204F2C441304602F076FE30
:102E780007EBC70104EB8101C5F30A13D1F89C22C3
:102E88001344C1F89C3262E7206802F037FF054618
:102E980000283FF468AF06F53067A246D946CDF85A
:102EA8000CB0ABE00123BB602068D0F840C000F54F
:102EB800306303EB491399682269012A0ED0A24AAC
:102EC80094454CD0B9F1000F03D1D4F89432002BBB
:102ED80056D059462046FEF7CDFD9DE011F0080F6B
:102EE8000BD09A4A944540F2978011F4004F00F0B5
:102EF80093804FF400429A608EE011F0200F02D0C8
:102F080020229A6088E011F0280F40F085808F4ACF
:102F1800944506D911F4004F03D04FF400429A604B
:102F28007AE01A69C2F31202DAF898329B1ACAF8E0
:102F38009C32B9F1000F07D1D4F894224AB1D4F8E1
:102F48008C221A44C4F88C2259462046FEF792FD7A
:102F580062E004F2C442012102F00EFFF4E711F42A
:102F6800004F03D04FF400429A6055E011F0200F53
:102F780001D020229A6059462046FEF77BFD4BE09F
:102F880004F2C442002102F0F7FEA2E70823BB6066
:102F980023681A6C03F5306303EB491399686B488F
:102FA800824240F25D8211F4004F02D04FF4004299
:102FB8009A602046FEF756FD2369012B2FD104F2B3
:102FC800C4420121206802F0D7FE28E09AF87F3237
:102FD800012B36D00223BB6018F0200F01D020232C
:102FE800BB6018F4005F02D04FF40053BB6009F1D6
:102FF800010920370AF1240A6D082AD015F0010FBB
:10300800F5D05FFA89FB5946206802F087FE8046B2
:1030180010F0010F7FF446AF18F0080FB6D118F082
:10302800100F01D01023BB6018F0020FD4D07369C1
:1030380013F0800FCAD0029A536843F48063536038
:10304800C4E700238AF87F3259462046FEF764FD1C
:10305800C0E7DDF80CB086E6206802F057FE80462F
:1030680000283FF487AEA24606F510695F4603962E
:10307800CDF810B024E059462046FEF707FD15F0BC
:10308800080F02D00823C9F8083015F0100F02D035
:103098001023C9F8083015F0400F02D04023C9F8B2
:1030A800083015F0020F3AD115F0800F50D10137D2
:1030B8000AF1240A09F120095FEA580800F09E8005
:1030C80018F0010FF3D05FFA87FB5946206802F029
:1030D8002EFE054610F0010FD1D002994B6B07F078
:1030E8000F02012000FA02F223EA02034B63C9F837
:1030F800080023698342BED1DAF84C30DAF8482058
:103108001344CAF84C30002FB5D1636D002BB2D1EF
:1031180004F2C4420146206802F02EFEABE73946AD
:10312800039802F03BF99AF83F30012B03D00223B1
:10313800C9F80830B8E74FF000038AF83F3059461D
:103148002046FEF7EFFCF2E70A31544F0A30544F9D
:103158005646DAF85C10DAF854309942A7D8226853
:10316800059202F5106202EB4712104692695B1A4B
:10317800DAF848108B4228BF0B46033392B2B2EB01
:10318800930F25D30697CDF81C80DDF814800746E9
:10319800F36D756D9D4221D9ED1AB36C9D4228BF20
:1031A8001D46237C0093ABB25A46F16C404602F0B0
:1031B800B8FBF36C2B44F364F36D2B44F365BB69E4
:1031C80003359BB2B3EB950FE2D2069FDDF81C8066
:1031D800726DF36D9A423FF66AAF02E0069FDDF822
:1031E8001C80059BD3F8342807F00F01012000FA52
:1031F80001F122EA0102C3F8342858E7039EDDF8FA
:1032080010B0B7E5029A536823F00103536094F8AD
:10321800F434012B08D02046FEF778FC2268536965
:1032280003F000435361ABE5002184F8F414204611
:1032380000F058F9F2E72046FEF750FCACE52046CE
:10324800FEF74CFCC9E5029A536823F0010353606A
:103258001021206802F0A2F86368E3B106F5106354
:103268004FF67F3199601A6822F400121A60C3F889
:103278000812D3F8002222F40012C3F80022D3F86F
:10328800002242F00062C3F800220BF1010B203348
:1032980062685A45E6D8029AD36943F00113D361AC
:1032A800236BDBB1D2F8843043F00B03C2F88430CF
:1032B800536C43F00B035364D6F8003823F4FE63D1
:1032C800C6F8003804F2C442217C206802F054FD9C
:1032D8002268536903F48053536185E502994A696A
:1032E80042F22B0313434B610B6943F00B030B6151
:1032F800E2E7206802F030FD206802F06DF9E06036
:10330800256801F029F80146227B284601F096FF3E
:103318002046FEF7CCFB2268536903F4005353613F
:1033280069E52046FEF7BDFB2268536903F00803F0
:10333800536167E5013524376368AB4208D997F8CC
:10334800A332012BF6D1E9B22046FFF7B3FCF1E72F
:10335800206802F0CFFC10F4801F25D06368012B91
:103368001DD906F5126825460127B94606E001373A
:1033780008F1200824356368BB4210D9D8F800202A
:1033880095F86430012BF2D1002AF0DA85F86390C1
:1033980067F07F01C9B22046FFF78CFCE7E7226897
:1033A800536903F480135361206802F0A3FC10F4FE
:1033B800001F31D06368012B29D906F532622346F4
:1033C80001218C4605E001312032243360688842AF
:1033D8001DD9156893F8A4020128F4D1002DF2DA5A
:1033E80005F48035D4F8FC0400F001008542EAD1E8
:1033F80083F8A3C2B06940F08000B061706910F032
:10340800800FE0D1029A536843F400735360226836
:10341800536903F400135361206802F06BFC10F049
:10342800804F10D1206802F065FC10F0040F3FF4C3
:103438005CAC23685D6815F0040F0DD122685368F1
:103448002B43536051E42046FEF772FB2268536910
:1034580003F080435361E5E72046FEF76FFBEDE795
:103468002046FEF7FFFADAE510B40468606A31B95D
:1034780040EA0240A06200205DF8044B7047A36A4E
:1034880000EB1340B1F1010C0BD0002303F1400114
:1034980004EB8101496800EB11400133DBB263455D
:1034A800F4D340EA02400CF1400C04EB8C04606059
:1034B800E1E703685962002070470000034602688C
:1034C8000121C0F80015002083F8F404936943F043
:1034D80000639361516D024B0B435365704700BF06
:1034E800030000107047000030B583B01B4B1A6C06
:1034F80042F080521A641B6C03F080530193019BC5
:10350800174A136843F480331360FEF725FC04461A
:10351800134D6B6813F4803F08D1FEF71DFC001BA8
:10352800B0F57A7FF5D9032003B030BD0C4A136893
:1035380043F400331360FEF70FFC0446084D6B6834
:1035480013F4003F07D1FEF707FC001BB0F57A7FA4
:10355800F5D90320E8E70020E6E700BF003802407D
:103568000070004010B44B6A13B1B2F1406F29D11A
:103578008B69002B70D00C6A002C40D003688C68D3
:10358800DC61CB691BB3CC6A234313430C6B234325
:103598004C6B23434C6A23430C6923430C6A234333
:1035A800CC6823438C6923430C6823434C6943EA62
:1035B800844304686361B2F1406F1DD003684A68B0
:1035C8009A6119E08B6A013B04682361D0E70068BF
:1035D800CB6A0C6B234313434A6B13434A6A134366
:1035E8000A6913430A6A13438A6913430A6813432F
:1035F8004A6943EA824343615DF8044B7047CC69EA
:10360800CCB123431343CC6A23430C6B23434C6B49
:1036180023434C6A2343CC6823430C6823434C69F7
:1036280043EA844304686361B2F1406FE4D00368FD
:103638004A689A61E0E70068CC6A23431A430B6B37
:1036480013434A6B13434A6A13430A6813434A698C
:1036580043EA82434361CFE70B6A002B35D0036806
:103668008C68DC61CB69E3B1CC6A234313430C6BF0
:1036780023434C6B23434C6A23430C6923430C6A52
:103688002343CC6823438C6923434C6943EA84432E
:1036980004686361B2F1406FAED003684A689A610A
:1036A800AAE70068CB6A0C6B234313434A6B1343A6
:1036B8004A6A13430A6913430A6A13438A6913431C
:1036C8004A6943EA8243436196E7CB69B3B1CC6A5E
:1036D800234313430C6B23434C6B23434C6A234310
:1036E800CC6823434C6943EA844304686361B2F1BC
:1036F800406F81D003684A689A617DE74B6A002B66
:103708003FF47AAF0068CC6A234313430A6B134330
:103718004A6B13434A6943EA824343616CE72DE9E4
:10372800F84380460E4615469946089FD8F800206B
:103738009468344214BF4FF0010C4FF0000CAC45B4
:1037480015D0B7F1FF3FF3D0FEF706FBA0EB090059
:10375800B84201D8002FE9D1042388F84130D8F8BD
:10376800443043F00103C8F84430012000E0002051
:10377800BDE8F88370B582B00446FEF7EDFA002C78
:1037880048D0064694F84130002B3AD025682A687C
:10379800A168013922F4F85242EA01222A60A36C96
:1037A80000933346002220212046FFF7B8FF18BBBC
:1037B80021680D68E368E2691343226A134362686B
:1037C80043EA0263144A2A4013430B6021684D6898
:1037D8006369A2691343226943EA02430F4A2A40F4
:1037E80013434B602268136843F0010313600023FE
:1037F8006364012384F84130002384F8403002B028
:1038080070BD84F840302046FDF73EFE41F2883313
:10381800A364BBE70120F2E72FFFFF00FEF8E0FFFB
:103828002DE9F04182B004460F461646FEF794FA99
:1038380094F840C05FFA8CFCBCF1010F3CD00546FF
:10384800012384F8403094F841C05FFA8CFC9C4511
:1038580008D04FF00208002384F84030404602B0F8
:10386800BDE8F08100226264022384F841300096AA
:10387800034620212046FFF752FF80460028EAD160
:10388800002239462046FFF76DFE7B6A1BB10123F3
:1038980084F84130DFE700962B46012202212046BA
:1038A800FFF73DFF80460028D5D123680222DA6061
:1038B800012384F84130CEE74FF00208CEE72DE926
:1038C800F04182B00446884615461F46FEF744FA82
:1038D80094F840C05FFA8CFCBCF1010F48D0064652
:1038E800012384F8403094F841C05FFA8CFC9C4571
:1038F80006D00220002384F8403002B0BDE8F081F1
:1039080000226264422384F8413000970346202154
:103918002046FFF704FF0028ECD123682A689A6242
:1039280023686A685A622368AA68DA622268136898
:1039380023F4400329690B4343F480031360EB68C5
:10394800C8F828304FF0006241462046FFF70AFECB
:1039580000973346012208212046FFF7E0FE0028A1
:10396800C8D123680822DA60012384F84130C1E70E
:103978000220C2E7F0B583B004460E461546FEF7AE
:10398800EBF994F840C05FFA8CFCBCF1010F3BD016
:10399800012384F8403094F841C05FFA8CFC9C45C0
:1039A80006D00227002384F84030384603B0F0BD23
:1039B80000226264822384F84130A36C009303469A
:1039C80020212046FFF7ABFE07460028EAD12268EF
:1039D800136823F0080369680B4313606B68082BAE
:1039E80006D04FF0406231462046FFF7BBFDD9E7CD
:1039F80023682A681A6323681022DA602268136829
:103A080043F480131360ECE70227CEE730B583B0A8
:103A18000446FEF7A1F9054694F8412012F0020089
:103A280010D0002384F8403023681A6812F0040F7D
:103A38000AD1002023689A6812F0200F12D10123BE
:103A480084F8413003B030BD1A6822F004021A60CD
:103A5800E06BFEF72FFB0028ECD0636C43F0040307
:103A68006364E7E71A6842F002021A60A36C0093E5
:103A78002B46012202212046FFF751FE0028E1D102
:103A880023680222DA60A36C00932B4600222021CF
:103A98002046FFF744FE0028D4D12268536923F05A
:103AA80040635361012384F84130CBE72DE9F043AB
:103AB80083B0044688461646FEF74EF9276894F800
:103AC8004030DBB2012B5CD00546012384F840303E
:103AD80094F841C05FFA8CFC9C4508D04FF0020C6A
:103AE800002384F84030604603B0BDE8F08300232B
:103AF8006364B8F1000F3FD0122384F841303B696A
:103B08000133E3623B690133A362C4F824807B6913
:103B180023F040637B61E36ACBB14FF001094FF0BA
:103B2800040800962B464A4641462046FFF7F7FD13
:103B38008446A8B9636A1B7887F82030636A013322
:103B48006362E16A0139E162E36A002BE9D1009618
:103B58002B46012202212046FFF7E1FD844618B1D9
:103B6800012384F84130BBE723680222DA6020464B
:103B7800FFF74CFF8446F3E7636C43F00803636484
:103B8800AEE74FF0020CAEE72DE9F04383B00446F0
:103B980088461646FEF7E0F82768BA6994F8403078
:103BA800DBB2012B60D00546012384F8403094F83D
:103BB80041C05FFA8CFC9C4508D04FF0020C0023F2
:103BC80084F84030604603B0BDE8F08300236364A6
:103BD800B8F1000F43D0222384F841303B69013308
:103BE800A3633B6901336363C4F830807B6923F0C6
:103BF800406343F080637B6123689A61A36BCBB118
:103C08004FF001094FF0060800962B464A464146F8
:103C18002046FFF784FD8446A8B9236B97F8202037
:103C28001A70236B01332363A16B0139A163A36B62
:103C3800002BE9D100962B46012202212046FFF7EE
:103C48006EFD844618B1012384F84130B7E7236834
:103C58000222DA602046FFF7D9FE8446F3E7636C58
:103C680043F008036364AAE74FF0020CAAE70000D8
:103C7800002800F002822DE9F04182B00446036872
:103C880013F0010F29D0964B9B6803F00C03042B0B
:103C98001AD0934B9B6803F00C03082B0FD0636872
:103CA800B3F5803F40D0002B54D18D4B1A6822F4D5
:103CB80080321A601A6822F480221A6039E0884B30
:103CC8005B6813F4800FEAD0854B1B6813F4003F40
:103CD80003D06368002B00F0D281236813F0020F31
:103CE80074D07F4B9B6813F00C0F5ED07C4B9B68A5
:103CF80003F00C03082B53D0E368002B00F08980F5
:103D0800774A136843F001031360FEF725F8054668
:103D1800734E336813F0020F72D1FEF71DF8401B83
:103D28000228F6D90320AFE16D4A136843F48033C3
:103D3800136063682BB3FEF70FF80546684E3368C7
:103D480013F4003FC9D1FEF707F8401B6428F6D9E1
:103D5800032099E1B3F5A02F09D0614B1A6822F42A
:103D680080321A601A6822F480221A60E1E75C4BFC
:103D78001A6842F480221A601A6842F480321A6083
:103D8800D7E7FDF7E9FF0546554E336813F4003FC2
:103D9800A3D0FDF7E1FF401B6428F6D9032073E1A7
:103DA8004F4B5B6813F4800FA6D14D4B1B6813F083
:103DB800020F03D0E368012B40F06381484A13687F
:103DC800216923F0F80343EAC1031360236813F061
:103DD800080F46D0636983B3414A536F43F0010328
:103DE8005367FDF7B9FF05463D4E736F13F0020F99
:103DF80037D1FDF7B1FF401B0228F6D9032043E174
:103E0800374A1368216923F0F80343EAC1031360B2
:103E1800DCE7334A136823F001031360FDF79CFFC6
:103E280005462F4E336813F0020FCFD0FDF794FFED
:103E3800401B0228F6D9032026E1294A536F23F0B4
:103E480001035367FDF788FF0546254E736F13F08E
:103E5800020F06D0FDF780FF401B0228F6D9032089
:103E680012E1236813F0040F7ED01D4B1B6C13F076
:103E7800805F1ED11A4B1A6C42F080521A641B6C78
:103E880003F080530193019B0125164B1B6813F423
:103E9800807F10D0A368012B26D0002B3CD1104B7B
:103EA8001A6F22F001021A671A6F22F004021A67C9
:103EB8001FE00025E9E70B4A136843F48073136099
:103EC800FDF74AFF0646074F3B6813F4807FE1D1B0
:103ED800FDF742FF801B6428F6D90320D4E000BF19
:103EE80000380240007000406E4A136F43F001032F
:103EF8001367A36833B3FDF72FFF0646694F41F2F6
:103F080088383B6F13F0020F2DD1FDF725FF801B7A
:103F18004045F6D90320B7E0052B09D0614B1A6F4D
:103F280022F001021A671A6F22F004021A67E0E70A
:103F38005C4B1A6F42F004021A671A6F42F00102D2
:103F48001A67D6E7FDF708FF0646564F41F288384C
:103F58003B6F13F0020F06D0FDF7FEFE801B4045B5
:103F6800F6D9032090E0FDB9A369002B00F08B80FF
:103F78004C4A926802F00C02082A58D0022B19D039
:103F8800484A136823F080731360FDF7E5FE044682
:103F9800444D2B6813F0007F47D0FDF7DDFE001B72
:103FA8000228F6D903206FE03E4A136C23F08053B1
:103FB8001364D9E73B4A136823F080731360FDF755
:103FC800CBFE0546374E336813F0007F06D0FDF769
:103FD800C3FE401B0228F6D9032055E0A36A5B08FC
:103FE8005A1EE369216A0B4343EA0243626A43EAC1
:103FF8008213E26A43EA026343F00053294A53609A
:10400800136843F080731360FDF7A6FE0446254D40
:104018002B6813F0007F06D1FDF79EFE001B0228D7
:10402800F6D9032030E000202EE000202CE01D4AC5
:104038005268012B2BD002F48003E1698B4228D10E
:1040480002F03F03216A8B4225D1616A47F6C073AB
:104058001340B3EB811F20D102F44031A36A5B08FF
:10406800013BB1EB034F1AD1E36A02F07062B2EB85
:10407800036F14BF0120002006E0012070470120D3
:1040880002E0012000E0002002B0BDE8F08101203C
:10409800FAE70120F8E70120F6E70120F4E701201C
:1040A800F2E700BF0038024070B588B00D461446EC
:1040B800F8B9204E336B43F001033363336B03F0DD
:1040C80001030193019B4FF480730393022304932C
:1040D8000323069300230593079303A91648FEF7C5
:1040E800A9F9B36823F0EC632B432343B36008B00A
:1040F80070BD104E336B43F004033363336B03F02E
:1041080004030293029B4FF4007303930223049366
:104118000323069300230593079303A90748FEF793
:1041280089F9B36823F0784343EA050141EAC401F9
:10413800B160DCE70038024000000240000802409D
:1041480008B5264B9B6803F00C03042B41D0082BC1
:1041580041D1224B5A6802F03F025B6813F4800F8A
:1041680012D01E4B5968C1F388111D480023A1FBCA
:104178000001FCF745F8194B5B68C3F301430133B1
:104188005B00B0FBF3F027E0144B5868C0F38810CD
:104198004FEA401CBCEB000C6EEB0E0E4FEA8E1380
:1041A80043EA9C634FEA8C11B1EB0C0163EB0E03FD
:1041B800DB0043EA5173C90011EB000C43F1000323
:1041C800990200234FEA8C2041EA9C51FCF718F829
:1041D800D1E7034800E0034808BD00BF00380240AB
:1041E80040787D010024F400002800F0A2802DE929
:1041F800F0410D460446534B1B6803F00F038B42F6
:104208000BD2504A136823F00F030B431360136853
:1042180003F00F038B4240F08E80236813F0020FE7
:1042280017D013F0040F04D0474A936843F4E053BF
:104238009360236813F0080F04D0434A936843F44B
:1042480060439360404A936823F0F003A1680B43EE
:104258009360236813F0010F31D06268012A20D0DF
:10426800022A25D0384B1B6813F0020F65D0364957
:104278008B6823F0030313438B60FDF76DFD06463F
:10428800314F41F28838BB6803F00C036268B3EB26
:10429800820F14D0FDF760FD801B4045F3D9032041
:1042A80045E0294B1B6813F4003FE0D101203EE0B4
:1042B800254B1B6813F0007FD9D1012037E0214B33
:1042C8001B6803F00F03AB420AD91E4A136823F098
:1042D8000F032B431360136803F00F03AB422ED177
:1042E800236813F0040F06D0174A936823F4E053A9
:1042F800E1680B439360236813F0080F07D0124A54
:104308009368216923F4604343EAC1039360FFF78C
:1043180017FF0D4B9B68C3F303130C4AD35CD840BB
:104328000B4B18600B4B1868FDF7DAFC0020BDE852
:10433800F081012070470120F9E70120F7E701200B
:10434800F5E700BF003C0240003802401C9A000814
:10435800F800002000010020014B1868704700BFDA
:10436800F8000020044B9B68C3F38223034AD35C04
:10437800034A1068D8407047003802402C9A000859
:10438800F8000020044B9B68C3F34233034AD35C14
:10439800034A1068D8407047003802402C9A000839
:1043A800F80000202DE9F04383B00446066816F0B3
:1043B80001060CD0B34B9A6822F400029A609A68FE
:1043C800416B0A439A60466BB6FA86F67609256809
:1043D80015F4002510D0AB4AD2F88C3023F44013E2
:1043E800E16B0B43C2F88C30E56BB5F5801F08BF55
:1043F8000126B5FA85F56D09236813F4801F10D0DE
:10440800A04AD2F88C3023F44003216C0B43C2F845
:104418008C30236CB3F5800F00F01281002B08BF9D
:104428000125236813F0807F18BF012613F0200FA1
:1044380040F00881236813F0100F0CD0914BD3F88B
:104448008C2022F08072C3F88C20D3F88C20A16BCA
:104458000A43C3F88C20236813F4804F08D0894A94
:10446800D2F8903023F44033616E0B43C2F8903099
:10447800236813F4004F08D0824AD2F8903023F40E
:104488004023A16E0B43C2F89030236813F4803F99
:1044980008D07C4AD2F8903023F44013E16E0B43E5
:1044A800C2F89030236813F4003F08D0754AD2F858
:1044B800903023F44003216F0B43C2F890302368F7
:1044C80013F0400F08D06F4AD2F8903023F003035E
:1044D800616C0B43C2F89030236813F0800F08D04A
:1044E800684AD2F8903023F00C03A16C0B43C2F851
:1044F8009030236813F4807F08D0624AD2F8903055
:1045080023F03003E16C0B43C2F89030236813F4B6
:10451800007F08D05B4AD2F8903023F0C003216DA9
:104528000B43C2F89030236813F4806F08D0554AC3
:10453800D2F8903023F44073616D0B43C2F8903089
:10454800236813F4006F08D04E4AD2F8903023F451
:104558004063A16D0B43C2F89030236813F4805F69
:1045680008D0484AD2F8903023F44053E16D0B4309
:10457800C2F89030236813F4005F08D0414AD2F89B
:10458800903023F44043216E0B43C2F890302368E7
:1045980013F4800F08D03B4AD2F8903023F08063A0
:1045A800A16F0B43C2F89030236813F4001F0DD09D
:1045B800344AD2F8903023F00063E16F0B43C2F81D
:1045C8009030E36FB3F1006F08BF0125236813F043
:1045D800080F18BF012513F4802F08D0294AD2F8F4
:1045E800903023F04073616F0B43C2F8903023681A
:1045F80013F4000F09D0234AD2F8903023F08053E7
:10460800D4F880100B43C2F89030012E04D02368F0
:1046180013F0007F00F002811A4A136823F08063C8
:104628001360FDF799FB0646164F3B6813F0006FC1
:1046380076D0FDF791FB801B6428F6D90320F0E0C3
:104648000126EEE60F4B1A6C42F080521A641B6C7E
:1046580003F080530193019B0B4A136843F4807362
:104668001360FDF779FB0746DFF81C80D8F80030A7
:1046780013F4807F0AD1FDF76FFBC01B6428F5D9BE
:104688000320CEE00038024000700040AB4B1B6FA7
:1046980013F4407315D0226B02F440729A4210D082
:1046A800A64B1A6F22F44072196F41F480311967D2
:1046B800196F21F4803119671A671B6F13F0010F06
:1046C80012D1236B03F44072B2F5407F1FD09B4A8E
:1046D800936823F4F8139360984A116F236BC3F31C
:1046E8000B030B431367A5E6FDF736FB0746DFF818
:1046F8004C8241F28839D8F8703013F0020FE0D1BB
:10470800FDF72AFBC01B4845F5D9032089E08B48F3
:10471800826822F4F8128A4919400A438260DBE76A
:10472800236813F0010F13D0636B8BB9834AD2F857
:104738008430D2F8841003F4403301F070610B43E5
:10474800616843EA8113A16843EA0173C2F88430BF
:10475800236813F4002F03D0E26BB2F5801F06D054
:1047680013F4801F1ED0236CB3F5800F1AD1734A3F
:10477800D2F88430D2F8841003F4403301F0E041D9
:104788000B43616843EA8113E16843EA0163C2F8B5
:104798008430D2F88C10636A013B21F01F010B436F
:1047A800C2F88C30236813F0807F11D0634AD2F8A6
:1047B8008430D2F8841003F0706301F0E0410B43B9
:1047C800616843EA8113216943EA0143C2F88430EE
:1047D800236813F0007F0DD0626823691B0443EA45
:1047E8008213E26843EA0263A26843EA0273534A07
:1047F800C2F88430514A136843F080631360FDF7B0
:10480800ABFA06464D4F3B6813F0006F06D1FDF733
:10481800A3FA801B6428F6D9032002E0012D03D0F7
:10482800002003B0BDE8F083444A136823F08053A6
:104838001360FDF791FA0546404E336813F0005FA8
:1048480006D0FDF789FA401B6428F6D90320E8E76B
:10485800236813F4002F01D0E26B22B113F4801FF8
:104868001DD0236CDBB9354AD2F88830D2F88810CD
:1048780003F4403301F0E0410B43616943EA8113DB
:10488800A16943EA0163C2F88830D2F88C30A16A82
:10489800013923F4F85343EA0123C2F88C30236822
:1048A80013F4001F03D0E36FB3F1006F31D0236816
:1048B80013F0080F19D0214AD2F88810D2F888309E
:1048C80003F4403301F070610B43616943EA8113DB
:1048D800E16943EA0173C2F88830D2F88C3023F4D6
:1048E8004033E16A0B43C2F88C30144A136843F032
:1048F80080531360FDF730FA0446104D2B6813F00F
:10490800005F19D1FDF728FA001B6428F6D90320A7
:1049180087E70A4AD2F88830D2F8881003F0706323
:1049280001F0E0410B43616943EA8113216A43EADC
:104938000143C2F88830BAE7002072E70038024025
:10494800FFFCFF0F10B5044601680868A3682269D8
:10495800134362691343E2691343A04A02401343B5
:104968000B602268536823F44053E1680B4353609B
:10497800A36921688A68206A034322F430621343DA
:104988008B602368964A934219D0964A934224D062
:10499800954A934238D0954A934258D0944A9342C4
:1049A80069D0944A934200F08B80934A934200F076
:1049B8009E80924A934200F0B18001204EE1904BD4
:1049C800D3F8903003F00303032B00F23881DFE8BB
:1049D80013F0BC00290049013400894BD3F890300A
:1049E80003F00C030C2B00F22C81DFE813F0CB0052
:1049F8002A012A012A011B002A012A012A013B0156
:104A08002A012A012A0126007D4BD3F8903003F0B1
:104A18003003202B00F026810DD8002B00F02E81CA
:104A2800102B06D1E369B3F5004F38D0FFF788FBA8
:104A3800ECE0012012E1302B07D1E369B3F5004F18
:104A480000F0C8804FF40040E1E0012006E16C4B23
:104A5800D3F8903003F0C003802B00F0038106D810
:104A6800002B00F00B81402BDCD00120F6E0C02B9E
:104A7800E3D00120F2E0624BD3F8903003F44073A6
:104A8800B3F5007F00F0F4800ED8002B00F0F6801C
:104A9800B3F5807F06D1E369B3F5004FC6D1FFF7C0
:104AA8004FFB76E00120D9E0B3F5407F06D1E069FD
:104AB800B0F5004F6FD04FF40040A8E00120CDE0E2
:104AC8004F4BD3F8903003F44063B3F5006F00F018
:104AD800CF8007D8002B00F0ED80B3F5806FDAD0D7
:104AE8000120BBE0B3F5406FE1D00120B6E0444BB4
:104AF800D3F8903003F44053B3F5005F00F0B8806A
:104B080007D8002B00F0BA80B3F5805FC3D001202E
:104B1800A4E0B3F5405FCAD001209FE0384BD3F83A
:104B2800903003F44043B3F5004F00F0A18007D85C
:104B3800002B00F0A380B3F5804FACD001208DE0AE
:104B4800B3F5404FB3D0012088E00123E269B2F504
:104B5800004F40F09880082B75D801A252F823F036
:104B6800974B0008CB4B0008D14B00084F4C00086E
:104B7800A74A00084F4C00084F4C00084F4C00084B
:104B8800914B00080023E1E74FF4004003E0FFF7F2
:104B9800E9FB002859D06268530803EB4003B3FBD4
:104BA800F2F3A3F110014FF6EF7291424FD823F0C0
:104BB8000F0292B22168C3F342031343CB60002073
:104BC8004CE0FFF7DFFBE4E70E48E4E70D48E2E7D7
:104BD8000C48E0E74FF40040DDE700BFF369FFEF62
:104BE800001001400044004000480040004C0040D4
:104BF800005000400014014000780040007C004054
:104C0800003802400024F400FFF7ACFB18B36368D7
:104C180000EB5300B0FBF3F0A0F110024FF6EF7376
:104C28009A421AD8236880B2D860002016E0FFF7AD
:104C3800A9FBEBE74FF40040E9E72148E7E701204B
:104C48000CE001200AE0012008E0002006E0012035
:104C580004E0012002E0002000E001200023A36618
:104C6800E36610BDE369B3F5004FAFD01448CEE753
:104C7800E369B3F5004FABD01148C8E7E369B3F572
:104C8800004F84D00023082BE3D801A252F823F068
:104C9800114C0008374C0008434C00085B4C0008D6
:104CA800354A00085B4C00085B4C00085B4C000868
:104CB8003D4C0008E369B3F5004F82D00123E2E7D9
:104CC8000024F400436A13F0010F06D00268536809
:104CD80023F40033816A0B435360436A13F0020FD5
:104CE80006D00268536823F48033C16A0B435360CB
:104CF800436A13F0040F06D00268536823F4802334
:104D0800016B0B435360436A13F0080F06D0026827
:104D1800536823F40043416B0B435360436A13F019
:104D2800100F06D00268936823F48053816B0B43FD
:104D38009360436A13F0200F06D00268936823F447
:104D48000053C16B0B439360436A13F0400F0AD0C2
:104D58000268536823F48013016C0B435360036C9F
:104D6800B3F5801F0BD0436A13F0800F06D002689A
:104D7800536823F40023816C0B4353607047026827
:104D8800536823F4C003416C0B435360EBE72DE9F0
:104D9800F84380460E4615469946089FD8F80030D5
:104DA800DC6936EA04040CBF01240024AC425AD161
:104DB800B7F1FF3FF4D0FCF7CFFFA0EB0900B842F2
:104DC80030D87FB3D8F800301A6812F0040FE5D055
:104DD800DA6912F4006FE1D04FF400621A62D8F871
:104DE800002052E8003F23F4D07342E80031002944
:104DF800F5D1D8F8002002F1080353E8003F23F06A
:104E08000103083242E800310029F2D12023C8F812
:104E18007C30C8F88030C8F88430002388F87830AF
:104E2800032021E0D8F8002052E8003F23F4D07393
:104E380042E800310029F5D1D8F8002002F1080332
:104E480053E8003F23F00103083242E8003100290B
:104E5800F2D12023C8F87C30C8F88030002388F8C5
:104E68007830032000E00020BDE8F8832DE9F04702
:104E780082B01E46C36F202B53D104460D46904680
:104E8800002952D0002A50D00023C0F884302123B2
:104E9800C367FCF761FF0746A4F85080A4F8528066
:104EA800A368B3F5805F0AD04FF0000AB4F8523017
:104EB8009BB25BB34FF000094FF0800817E02369FD
:104EC80013B9AA460025F1E74FF0000AEEE7226879
:104ED8003AF8023BC3F308039362B4F85220013A4C
:104EE80092B2A4F85220B4F852309BB273B1009633
:104EF8003B464A4641462046FFF749FFB8B9002DD0
:104F0800E5D0236815F8012B9A62E6E700963B4640
:104F1800002240212046FFF73AFF50B92023E367DB
:104F280000E0022002B0BDE8F0870120FAE7032084
:104F3800F8E70320F6E72DE9F04F83B01E46D0F8D6
:104F48008030202B6CD104460D46904600296BD04A
:104F5800002A69D00023C0F884302222C0F88020BB
:104F68000366FCF7F9FE0746A4F85880A4F85A80AF
:104F7800A368B3F5805F15D0F3B92369002B0CBF84
:104F88004FF0FF084FF07F08A4F85C804FF0000B4B
:104F9800B4F85A309BB2002B3DD04FF0000A4FF0C6
:104FA800200927E02369002B42D04FF0FF08A4F81E
:104FB8005C804FF0000BEBE7B3F1805F02D04FF05D
:104FC8000008E1E72369002B14BF4FF03F084FF0BA
:104FD8007F08D9E723685B6A03EA080305F8013B01
:104FE800B4F85A30013B9BB2A4F85A30B4F85A309E
:104FF8009BB283B100963B46524649462046FFF78E
:10500800C6FE98B9002DE5D123685B6A08EA030358
:105018002BF8023BE4E72023C4F88030002000E0AE
:10502800022003B0BDE8F08F0120FAE70320F8E77B
:1050380040F2FF18A4F85C80AB460025A8E710B53D
:1050480082B004460023C0F88430FCF785FE23684C
:105058001B6813F0080F0AD12023E367C4F88030D7
:1050680000202066606684F8780002B010BD6FF0FA
:105078007E430093034600224FF400112046FFF7B9
:1050880086FE0028E8D00320EFE768B310B5044691
:10509800C36F03B32423E3672268136823F0010373
:1050A80013602046FFF74EFC012813D0636ABBB992
:1050B8002268536823F4904353602268936823F06E
:1050C8002A0393602268136843F0010313602046A3
:1050D800FFF7B5FF10BD80F87830FCF755FAD9E72F
:1050E8002046FFF7EFFDE3E70120704700283AD09C
:1050F800F8B50F4616461D460446C36F53B324231E
:10510800E3672268136823F0010313602046FFF762
:1051180019FC01281DD0636A0BBB2268936843F40D
:10512800804393602268936823F400433B43936071
:10513800226811682D0445EA46550C4B0B401D4367
:1051480015602268136843F0010313602046FFF7D7
:1051580076FFF8BD80F87830FCF716FACFE72046DE
:10516800FFF7B0FDD9E70120704700BFFFFF00FC43
:1051780082B000230193114A019B01330193019BE3
:10518800934215D80369002BF6DA002301930369CB
:1051980043F001030361094A019B01330193019B19
:1051A800934208D8036913F0010FF5D1002000E0FD
:1051B800032002B070470320FBE700BF400D030047
:1051C80084B010B5044603A880E80E00089B012BA4
:1051D8001DD1A36B23F48033A363E268164B1340FD
:1051E800E360E36823F44013E3600F9B012B09D0CD
:1051F8002046FFF7BDFF069B012B14D0BDE81040E9
:1052080004B07047E36843F48013E360F0E7E368B1
:1052180043F04003E3602046FFF7AAFFA36B43F483
:105228008033A363E7E7A36843F00603A360A3689A
:1052380043F02003A360E1E7BFFFBDFF022A0AD0C5
:105248000922C36823F47053C360C36843EA822306
:10525800C36000207047204B0B44204A93422AD950
:105268001F4B0B441F4A934227D91F4B0B441F4A1D
:10527800934224D91E4B0B441E4A934221D31E4B02
:105288000B441E4A93421ED91D4B0B441D4A9342A0
:105298001BD31D4B0B441D4A934218D31C4B0B4484
:1052A8001C4A934215D31C4A0A441C4B9A4234BFE9
:1052B80007220622C5E70F22C3E70E22C1E70D2207
:1052C800BFE70C22BDE70B22BBE70A22B9E7092298
:1052D800B7E70822B5E700BF405327FFFF340C00AB
:1052E800401E1BFF3F420F0000DC0BFF7F4F1200E8
:1052F800808CF9FE20D6130060B6E5FE5FE3160049
:1053080000D3CEFE40771B00C05BB3FEC0912100E6
:1053180000CA91FE20753800E05459FEE09C410017
:10532800836843F00103836000207047836823F09B
:10533800010383600020704770B50546C36823F0F9
:10534800C043C360012915D029BBC36843F080431B
:10535800C360002401263046FCF704FD01346B6964
:1053680013F0010F01D0312CF5D9322C14BF0020D5
:10537800012070BDC36843F00053C36000240126B8
:105388003046FCF7EFFC01346B6913F0010FECD1E8
:10539800312CF5D9E9E70120EBE7000082B00023C2
:1053A8000193114A019B01330193019B934215D844
:1053B8000369002BF6DA00230193890141F02001EB
:1053C8000161094A019B01330193019B934208D86B
:1053D800036913F0200FF5D1002000E0032002B08C
:1053E80070470320FBE700BF400D030082B0002395
:1053F8000193104A019B01330193019B934213D8F7
:105408000369002BF6DA0023019310230361094A8C
:10541800019B01330193019B934208D8036913F060
:10542800100FF5D1002000E0032002B070470320E0
:10543800FBE700BF400D0300D0F800381943C0F85F
:10544800001800207047000084B02DE9F04704469A
:1054580009A880E80E000D46139E0023194603F1A3
:10546800400204EB8202516001330F2BF7D126BBB7
:10547800D4F8043843F00203C4F80438A36B23F4C7
:105488000013A363236843F040032360236843F0B9
:10549800800323600023C4F8003E04F50067D4F8B5
:1054A8000038C4F800380E9B012B10D10B9B4BB968
:1054B80000212046FFF7C0FF0DE0A36B43F4001363
:1054C800A363E7E701212046FFF7B6FF03E00321C6
:1054D8002046FFF7B1FF10212046FFF75FFF804607
:1054E8002046FFF783FF48EA000818F0FF0F14BFB3
:1054F8004FF0010E4FF0000E00233B617B61FB6112
:10550800002D3FD004F51063002294464FF09049D7
:105518004FF0006A4FF67F380AE082B1C3F8009076
:10552800C1F810C0C1F8088001322033954209D073
:10553800194618680028F0DBC3F800C0F0E7C3F884
:1055480000A0EDE704F53063002294464FF090493F
:105558004FF0006A4FF67F380AE082B1C3F8009036
:10556800C1F810C0C1F8088001322033954209D033
:10557800194618680028F0DBC3F800C0F0E7C3F844
:1055880000A0EDE73B6923F480733B610023A3612E
:105598006FF0804363610C9B1BB9A36943F0100350
:1055A800A361A2690A4B1343A3610F9B1BB1A369B3
:1055B80043F00803A361012E04D07046BDE8F0470C
:1055C80004B07047A269034B1343A361F5E700BF1A
:1055D80000383C8004000040D0F8083800F500602E
:1055E80013F0060F05D013F0020F14BF02200F208E
:1055F800704700207047000030B50A784B78012BBF
:1056080020D0D0F81C4802F00F0E4FF4803303FA74
:105618000EF32343C0F81C3800EB4210D0F8003BCF
:1056280013F4004F0CD1D0F8002BCB68C3F30A0356
:1056380013430A7943EA8243124A1A43C0F8002BFB
:10564800002030BDD0F81C5802F00F0C03FA0CF300
:105658002B43C0F81C3800EB4210D0F8003913F483
:10566800004FEDD1D0F80049CB68C3F30A032343B8
:10567800097943EA814343EA8253024A1A43C0F84C
:105688000029DDE70080001030B40B784A78012A41
:1056980026D000EB4313D3F8002B002A50DBD0F8B8
:1056A8003C480A7802F00F024FF0010C0CFA02F2A3
:1056B80024EA0242C0F83C28D0F81C28097801F0F6
:1056C8000F010CFA01FC22EA0C42C0F81C28D3F89E
:1056D800001B224A0A40C3F8002B002030BC704748
:1056E80000EB4313D3F80029002A1CDBD0F83C5800
:1056F8000A7802F00F02012404FA02F225EA0202F3
:10570800C0F83C28D0F81C28097801F00F018C401B
:1057180022EA0402C0F81C28D3F80019104A0A40EB
:10572800C3F80029D9E7D3F8002942F00062C3F88A
:105738000029D3F8002942F08042C3F80029D5E7B0
:10574800D3F8002B42F00062C3F8002BD3F8002BEB
:1057580042F08042C3F8002BA1E700BF0078F3EFC6
:10576800007833EC70B40B784C78012C26D000EB21
:10577800431000F530631D693F4C2C401C611D69C6
:105788003E4C2C401C618C690CB1CC688C61CC6897
:10579800CC611C6944F400241C611D69CC69C4F304
:1057A80012042C431C61012A61D0D0F8003B43F05D
:1057B8000443C0F8003B002070BC70478C695CBB98
:1057C80000EB4314D4F810692C4D3540C4F8105937
:1057D800D4F8105945F40025C4F81059D4F81069C4
:1057E800254D3540C4F81059012A31D000EB431338
:1057F800D3F8002942F00442C3F800298B69002B32
:10580800D9D0D0F834480A7802F00F020123934027
:105818002343C0F83438CEE700EB431404F5106492
:105828002669154D354025612669144D3540256199
:10583800CD688E69AE4288BF8D61256945F4002523
:10584800256126698D69C5F3120535432561CBE7C6
:105858004A691AB100EB4311C1F8142900EB43134C
:10586800D3F8002942F00442C3F80029A3E70A69E3
:10587800002A9AD05A6198E70000F8FFFFFF07E076
:1058880010B483B0034600220192487801280BD057
:1058980003F530600B785B011A58002A26DB0020DC
:1058A80003B05DF8044B704703F510630A785201A2
:1058B800D458002C01DB0020F2E7D45844F00064EF
:1058C800D4500A785201D45844F08044D45042F25B
:1058D800107C019A01320192019A6245E0D80A7857
:1058E8005201D258002AF4DB0020D9E71A5842F0B6
:1058F80000621A500B785B011A5842F080421A5025
:1059080042F21072019B01330193019B934206D826
:105918000B785B011B58002BF4DB0020C0E701204B
:10592800BEE710B49DF8044074B903334FEA930CF2
:10593800032B09D9013200EB0230002351F8042B64
:10594800026001339C45F9D800205DF8044B70478C
:10595800F0B583B00B784C78012C31D000EB4313B1
:1059680003F5306CDCF81050794C2C40CCF8104022
:10597800DCF81050774C2C40CCF810408C69002C87
:1059880040F0B780DCF81050CC68C4F312042C4304
:10599800CCF81040DCF8104044F40024CCF8104057
:1059A800012A00F0C0800A79012A00F0C380D3F8E8
:1059B800002B42F00442C3F8002B002003B0F0BDD6
:1059C8008C6974BB00EB4314D4F81069614D354001
:1059D800C4F81059D4F8105945F40025C4F81059E2
:1059E800D4F810695A4D3540C4F81059012A4AD0E4
:1059F80000EB4313D3F8004944F00444C3F80049CA
:105A08000C79012C61D08B69002BD6D0D0F83448A2
:105A18000A7802F00F02012393402343C0F8343878
:105A2800CBE700EB4314D4F81069494D3540C4F86E
:105A38001059D4F81069474D3540C4F81059D4F8B6
:105A48001079CE688D693544013DB5FBF6F5424EB7
:105A580006EAC5453D43C4F81059D4F810698D6964
:105A6800C5F312053543C4F8105904F510640D79CF
:105A7800012DBBD1256925F0C0452561256945F073
:105A880000552561B2E74A691AB100EB4314C4F81E
:105A980014290A79012A08D000EB4313D3F8002906
:105AA80042F00442C3F8002987E7D0F8082812F426
:105AB800807F00EB4311D1F800290CBF42F000525F
:105AC80042F08052C1F80029E6E7D0F8084814F4FB
